{
  "_format": "hh-sol-artifact-1",
  "contractName": "ImpactAttestation",
  "sourceName": "src/ImpactAttestation.sol",
  "abi": [
    {
      "inputs": [
        {
          "internalType": "uint256",
          "name": "approvalThreshold_",
          "type": "uint256"
        },
        {
          "internalType": "uint256",
          "name": "rejectionThreshold_",
          "type": "uint256"
        },
        {
          "internalType": "uint256",
          "name": "reviewWindow_",
          "type": "uint256"
        }
      ],
      "stateMutability": "nonpayable",
      "type": "constructor"
    },
    {
      "inputs": [],
      "name": "AccessControlBadConfirmation",
      "type": "error"
    },
    {
      "inputs": [
        {
          "internalType": "address",
          "name": "account",
          "type": "address"
        },
        {
          "internalType": "bytes32",
          "name": "neededRole",
          "type": "bytes32"
        }
      ],
      "name": "AccessControlUnauthorizedAccount",
      "type": "error"
    },
    {
      "inputs": [],
      "name": "AlreadyRewarded",
      "type": "error"
    },
    {
      "inputs": [],
      "name": "AlreadyVoted",
      "type": "error"
    },
    {
      "inputs": [],
      "name": "InvalidAttestation",
      "type": "error"
    },
    {
      "inputs": [],
      "name": "InvalidThreshold",
      "type": "error"
    },
    {
      "inputs": [],
      "name": "InvalidURI",
      "type": "error"
    },
    {
      "inputs": [],
      "name": "NotEligible",
      "type": "error"
    },
    {
      "inputs": [],
      "name": "ReentrancyGuardReentrantCall",
      "type": "error"
    },
    {
      "inputs": [],
      "name": "WindowExpired",
      "type": "error"
    },
    {
      "inputs": [],
      "name": "ZeroAmount",
      "type": "error"
    },
    {
      "anonymous": false,
      "inputs": [
        {
          "indexed": true,
          "internalType": "uint256",
          "name": "id",
          "type": "uint256"
        },
        {
          "indexed": true,
          "internalType": "address",
          "name": "attester",
          "type": "address"
        },
        {
          "indexed": false,
          "internalType": "uint256",
          "name": "total",
          "type": "uint256"
        }
      ],
      "name": "Confirmed",
      "type": "event"
    },
    {
      "anonymous": false,
      "inputs": [
        {
          "indexed": true,
          "internalType": "uint256",
          "name": "id",
          "type": "uint256"
        },
        {
          "indexed": true,
          "internalType": "address",
          "name": "attester",
          "type": "address"
        },
        {
          "indexed": false,
          "internalType": "uint256",
          "name": "total",
          "type": "uint256"
        }
      ],
      "name": "Rejected",
      "type": "event"
    },
    {
      "anonymous": false,
      "inputs": [
        {
          "indexed": true,
          "internalType": "uint256",
          "name": "id",
          "type": "uint256"
        },
        {
          "indexed": true,
          "internalType": "address",
          "name": "contributor",
          "type": "address"
        },
        {
          "indexed": false,
          "internalType": "uint256",
          "name": "amount",
          "type": "uint256"
        }
      ],
      "name": "Rewarded",
      "type": "event"
    },
    {
      "anonymous": false,
      "inputs": [
        {
          "indexed": true,
          "internalType": "bytes32",
          "name": "role",
          "type": "bytes32"
        },
        {
          "indexed": true,
          "internalType": "bytes32",
          "name": "previousAdminRole",
          "type": "bytes32"
        },
        {
          "indexed": true,
          "internalType": "bytes32",
          "name": "newAdminRole",
          "type": "bytes32"
        }
      ],
      "name": "RoleAdminChanged",
      "type": "event"
    },
    {
      "anonymous": false,
      "inputs": [
        {
          "indexed": true,
          "internalType": "bytes32",
          "name": "role",
          "type": "bytes32"
        },
        {
          "indexed": true,
          "internalType": "address",
          "name": "account",
          "type": "address"
        },
        {
          "indexed": true,
          "internalType": "address",
          "name": "sender",
          "type": "address"
        }
      ],
      "name": "RoleGranted",
      "type": "event"
    },
    {
      "anonymous": false,
      "inputs": [
        {
          "indexed": true,
          "internalType": "bytes32",
          "name": "role",
          "type": "bytes32"
        },
        {
          "indexed": true,
          "internalType": "address",
          "name": "account",
          "type": "address"
        },
        {
          "indexed": true,
          "internalType": "address",
          "name": "sender",
          "type": "address"
        }
      ],
      "name": "RoleRevoked",
      "type": "event"
    },
    {
      "anonymous": false,
      "inputs": [
        {
          "indexed": true,
          "internalType": "uint256",
          "name": "id",
          "type": "uint256"
        },
        {
          "indexed": true,
          "internalType": "address",
          "name": "contributor",
          "type": "address"
        },
        {
          "indexed": false,
          "internalType": "string",
          "name": "proofURI",
          "type": "string"
        },
        {
          "indexed": false,
          "internalType": "uint256",
          "name": "reward",
          "type": "uint256"
        }
      ],
      "name": "Submitted",
      "type": "event"
    },
    {
      "anonymous": false,
      "inputs": [
        {
          "indexed": false,
          "internalType": "uint256",
          "name": "approvalThreshold",
          "type": "uint256"
        },
        {
          "indexed": false,
          "internalType": "uint256",
          "name": "rejectionThreshold",
          "type": "uint256"
        }
      ],
      "name": "ThresholdsUpdated",
      "type": "event"
    },
    {
      "anonymous": false,
      "inputs": [
        {
          "indexed": true,
          "internalType": "address",
          "name": "funder",
          "type": "address"
        },
        {
          "indexed": false,
          "internalType": "uint256",
          "name": "amount",
          "type": "uint256"
        },
        {
          "indexed": false,
          "internalType": "uint256",
          "name": "newBalance",
          "type": "uint256"
        }
      ],
      "name": "TreasuryFunded",
      "type": "event"
    },
    {
      "inputs": [],
      "name": "ATTESTER_ROLE",
      "outputs": [
        {
          "internalType": "bytes32",
          "name": "",
          "type": "bytes32"
        }
      ],
      "stateMutability": "view",
      "type": "function"
    },
    {
      "inputs": [],
      "name": "DEFAULT_ADMIN_ROLE",
      "outputs": [
        {
          "internalType": "bytes32",
          "name": "",
          "type": "bytes32"
        }
      ],
      "stateMutability": "view",
      "type": "function"
    },
    {
      "inputs": [
        {
          "internalType": "address",
          "name": "account",
          "type": "address"
        }
      ],
      "name": "addAttester",
      "outputs": [],
      "stateMutability": "nonpayable",
      "type": "function"
    },
    {
      "inputs": [],
      "name": "approvalThreshold",
      "outputs": [
        {
          "internalType": "uint256",
          "name": "",
          "type": "uint256"
        }
      ],
      "stateMutability": "view",
      "type": "function"
    },
    {
      "inputs": [
        {
          "internalType": "uint256",
          "name": "",
          "type": "uint256"
        }
      ],
      "name": "attestations",
      "outputs": [
        {
          "internalType": "uint256",
          "name": "id",
          "type": "uint256"
        },
        {
          "internalType": "address",
          "name": "contributor",
          "type": "address"
        },
        {
          "internalType": "string",
          "name": "proofURI",
          "type": "string"
        },
        {
          "internalType": "string",
          "name": "descriptionURI",
          "type": "string"
        },
        {
          "internalType": "uint256",
          "name": "requestedReward",
          "type": "uint256"
        },
        {
          "internalType": "uint256",
          "name": "confirmations",
          "type": "uint256"
        },
        {
          "internalType": "uint256",
          "name": "rejections",
          "type": "uint256"
        },
        {
          "internalType": "bool",
          "name": "rewarded",
          "type": "bool"
        },
        {
          "internalType": "bool",
          "name": "rejected",
          "type": "bool"
        },
        {
          "internalType": "uint256",
          "name": "submittedAt",
          "type": "uint256"
        }
      ],
      "stateMutability": "view",
      "type": "function"
    },
    {
      "inputs": [
        {
          "internalType": "uint256",
          "name": "attestationId",
          "type": "uint256"
        }
      ],
      "name": "claim",
      "outputs": [],
      "stateMutability": "nonpayable",
      "type": "function"
    },
    {
      "inputs": [
        {
          "internalType": "uint256",
          "name": "attestationId",
          "type": "uint256"
        }
      ],
      "name": "confirm",
      "outputs": [],
      "stateMutability": "nonpayable",
      "type": "function"
    },
    {
      "inputs": [],
      "name": "count",
      "outputs": [
        {
          "internalType": "uint256",
          "name": "",
          "type": "uint256"
        }
      ],
      "stateMutability": "view",
      "type": "function"
    },
    {
      "inputs": [],
      "name": "fundTreasury",
      "outputs": [],
      "stateMutability": "payable",
      "type": "function"
    },
    {
      "inputs": [
        {
          "internalType": "bytes32",
          "name": "role",
          "type": "bytes32"
        }
      ],
      "name": "getRoleAdmin",
      "outputs": [
        {
          "internalType": "bytes32",
          "name": "",
          "type": "bytes32"
        }
      ],
      "stateMutability": "view",
      "type": "function"
    },
    {
      "inputs": [
        {
          "internalType": "bytes32",
          "name": "role",
          "type": "bytes32"
        },
        {
          "internalType": "address",
          "name": "account",
          "type": "address"
        }
      ],
      "name": "grantRole",
      "outputs": [],
      "stateMutability": "nonpayable",
      "type": "function"
    },
    {
      "inputs": [
        {
          "internalType": "bytes32",
          "name": "role",
          "type": "bytes32"
        },
        {
          "internalType": "address",
          "name": "account",
          "type": "address"
        }
      ],
      "name": "hasRole",
      "outputs": [
        {
          "internalType": "bool",
          "name": "",
          "type": "bool"
        }
      ],
      "stateMutability": "view",
      "type": "function"
    },
    {
      "inputs": [
        {
          "internalType": "uint256",
          "name": "",
          "type": "uint256"
        },
        {
          "internalType": "address",
          "name": "",
          "type": "address"
        }
      ],
      "name": "hasVoted",
      "outputs": [
        {
          "internalType": "bool",
          "name": "",
          "type": "bool"
        }
      ],
      "stateMutability": "view",
      "type": "function"
    },
    {
      "inputs": [
        {
          "internalType": "uint256",
          "name": "attestationId",
          "type": "uint256"
        }
      ],
      "name": "reject",
      "outputs": [],
      "stateMutability": "nonpayable",
      "type": "function"
    },
    {
      "inputs": [],
      "name": "rejectionThreshold",
      "outputs": [
        {
          "internalType": "uint256",
          "name": "",
          "type": "uint256"
        }
      ],
      "stateMutability": "view",
      "type": "function"
    },
    {
      "inputs": [
        {
          "internalType": "address",
          "name": "account",
          "type": "address"
        }
      ],
      "name": "removeAttester",
      "outputs": [],
      "stateMutability": "nonpayable",
      "type": "function"
    },
    {
      "inputs": [
        {
          "internalType": "bytes32",
          "name": "role",
          "type": "bytes32"
        },
        {
          "internalType": "address",
          "name": "callerConfirmation",
          "type": "address"
        }
      ],
      "name": "renounceRole",
      "outputs": [],
      "stateMutability": "nonpayable",
      "type": "function"
    },
    {
      "inputs": [
        {
          "internalType": "address",
          "name": "",
          "type": "address"
        }
      ],
      "name": "reputation",
      "outputs": [
        {
          "internalType": "uint256",
          "name": "",
          "type": "uint256"
        }
      ],
      "stateMutability": "view",
      "type": "function"
    },
    {
      "inputs": [],
      "name": "reviewWindow",
      "outputs": [
        {
          "internalType": "uint256",
          "name": "",
          "type": "uint256"
        }
      ],
      "stateMutability": "view",
      "type": "function"
    },
    {
      "inputs": [
        {
          "internalType": "bytes32",
          "name": "role",
          "type": "bytes32"
        },
        {
          "internalType": "address",
          "name": "account",
          "type": "address"
        }
      ],
      "name": "revokeRole",
      "outputs": [],
      "stateMutability": "nonpayable",
      "type": "function"
    },
    {
      "inputs": [
        {
          "internalType": "uint256",
          "name": "approvalThreshold_",
          "type": "uint256"
        },
        {
          "internalType": "uint256",
          "name": "rejectionThreshold_",
          "type": "uint256"
        }
      ],
      "name": "setThresholds",
      "outputs": [],
      "stateMutability": "nonpayable",
      "type": "function"
    },
    {
      "inputs": [
        {
          "internalType": "string",
          "name": "proofURI",
          "type": "string"
        },
        {
          "internalType": "string",
          "name": "descriptionURI",
          "type": "string"
        },
        {
          "internalType": "uint256",
          "name": "reward",
          "type": "uint256"
        }
      ],
      "name": "submit",
      "outputs": [
        {
          "internalType": "uint256",
          "name": "attestationId",
          "type": "uint256"
        }
      ],
      "stateMutability": "nonpayable",
      "type": "function"
    },
    {
      "inputs": [
        {
          "internalType": "bytes4",
          "name": "interfaceId",
          "type": "bytes4"
        }
      ],
      "name": "supportsInterface",
      "outputs": [
        {
          "internalType": "bool",
          "name": "",
          "type": "bool"
        }
      ],
      "stateMutability": "view",
      "type": "function"
    },
    {
      "inputs": [],
      "name": "treasury",
      "outputs": [
        {
          "internalType": "uint256",
          "name": "",
          "type": "uint256"
        }
      ],
      "stateMutability": "view",
      "type": "function"
    },
    {
      "stateMutability": "payable",
      "type": "receive"
    }
  ],
  "bytecode": "0x60a060405234801561000f575f5ffd5b5060405161165938038061165983398101604081905261002e91610191565b60017f9b779b17422d0df92223018b32b4d1fa46e071723d6817e2486d003becc55f005582158061005d575081155b1561007b5760405163aabd5a0960e01b815260040160405180910390fd5b805f0361009b5760405163aabd5a0960e01b815260040160405180910390fd5b6001839055600282905560808190526100b45f336100e8565b506100df7fca77cd8f9856ef5fcd36f6b15bf469fe216c2f9114f60dd031f0a2b97b67aaa9336100e8565b505050506101bc565b5f828152602081815260408083206001600160a01b038516845290915281205460ff16610188575f838152602081815260408083206001600160a01b03861684529091529020805460ff191660011790556101403390565b6001600160a01b0316826001600160a01b0316847f2f8788117e7eff1d82e926ec794901d17c78024a50270940304540a733656f0d60405160405180910390a450600161018b565b505f5b92915050565b5f5f5f606084860312156101a3575f5ffd5b5050815160208301516040909301519094929350919050565b60805161147e6101db5f395f818161036b0152610c6a015261147e5ff3fe60806040526004361061014a575f3560e01c80637d0eef61116100b3578063b9f794511161006d578063b9f79451146103c7578063ba0179b5146103f2578063c896314014610411578063cc78fef114610426578063d547741f14610445578063e3064a7714610464575f5ffd5b80637d0eef611461032657806391d148541461033b5780639ca4218f1461035a578063a217fddf1461038d578063b8adaa11146103a0578063b9c18685146103bf575f5ffd5b80632f2ff15d116101045780632f2ff15d1461025b5780632f81bb581461027a57806336568abe1461029a578063379607f5146102b957806343859632146102d857806361d027b314610311575f5ffd5b806301daf26b1461015f57806301ffc9a71461019d57806302bef847146101cc57806306661abd146101eb57806321f31c8f1461020e578063248a9ca31461022d575f5ffd5b3661015b576101593334610483565b005b5f5ffd5b34801561016a575f5ffd5b5061017e610179366004611034565b61050a565b6040516101949a99989796959493929190611079565b60405180910390f35b3480156101a8575f5ffd5b506101bc6101b73660046110ee565b610674565b6040519015158152602001610194565b3480156101d7575f5ffd5b506101596101e6366004611132565b6106aa565b3480156101f6575f5ffd5b5061020060035481565b604051908152602001610194565b348015610219575f5ffd5b50610200610228366004611190565b6106d0565b348015610238575f5ffd5b50610200610247366004611034565b5f9081526020819052604090206001015490565b348015610266575f5ffd5b50610159610275366004611203565b6108f0565b348015610285575f5ffd5b506102005f5160206114295f395f51905f5281565b3480156102a5575f5ffd5b506101596102b4366004611203565b61091a565b3480156102c4575f5ffd5b506101596102d3366004611034565b61094d565b3480156102e3575f5ffd5b506101bc6102f2366004611203565b600660209081525f928352604080842090915290825290205460ff1681565b34801561031c575f5ffd5b5061020060045481565b348015610331575f5ffd5b5061020060015481565b348015610346575f5ffd5b506101bc610355366004611203565b610b08565b348015610365575f5ffd5b506102007f000000000000000000000000000000000000000000000000000000000000000081565b348015610398575f5ffd5b506102005f81565b3480156103ab575f5ffd5b506101596103ba366004611034565b610b30565b610159610c39565b3480156103d2575f5ffd5b506102006103e1366004611132565b60076020525f908152604090205481565b3480156103fd575f5ffd5b5061015961040c366004611034565b610c45565b34801561041c575f5ffd5b5061020060025481565b348015610431575f5ffd5b50610159610440366004611132565b610d6b565b348015610450575f5ffd5b5061015961045f366004611203565b610d8c565b34801561046f575f5ffd5b5061015961047e36600461122d565b610db0565b805f036104a357604051631f2a200560e01b815260040160405180910390fd5b8060045f8282546104b49190611261565b90915550506004546040516001600160a01b038416917fc368570c718ead78e572d31d3c0a44869e1623a1355733b857032ded01322d83916104fe91858252602082015260400190565b60405180910390a25050565b60056020525f908152604090208054600182015460028301805492936001600160a01b039092169261053b90611274565b80601f016020809104026020016040519081016040528092919081815260200182805461056790611274565b80156105b25780601f10610589576101008083540402835291602001916105b2565b820191905f5260205f20905b81548152906001019060200180831161059557829003601f168201915b5050505050908060030180546105c790611274565b80601f01602080910402602001604051908101604052809291908181526020018280546105f390611274565b801561063e5780601f106106155761010080835404028352916020019161063e565b820191905f5260205f20905b81548152906001019060200180831161062157829003601f168201915b505050600484015460058501546006860154600787015460089097015495969295919450925060ff80831692610100900416908a565b5f6001600160e01b03198216637965db0b60e01b14806106a457506301ffc9a760e01b6001600160e01b03198316145b92915050565b5f6106b481610e2b565b6106cb5f5160206114295f395f51905f5283610e35565b505050565b5f8415806106dc575082155b156106fa57604051633ba0191160e01b815260040160405180910390fd5b815f0361071a57604051631f2a200560e01b815260040160405180910390fd5b60035f8154610728906112ac565b9190508190559050604051806101400160405280828152602001336001600160a01b0316815260200187878080601f0160208091040260200160405190810160405280939291908181526020018383808284375f92019190915250505090825250604080516020601f8801819004810282018101909252868152918101919087908790819084018382808284375f92018290525093855250505060208083018690526040808401839052606084018390526080840183905260a084018390524260c090940193909352848252600581529082902083518155908301516001820180546001600160a01b0319166001600160a01b039092169190911790559082015160028201906108389082611323565b506060820151600382019061084d9082611323565b506080820151600482015560a0820151600582015560c0820151600682015560e08201516007820180546101008086015115150261ff00199315159390931661ffff199091161791909117905561012090910151600890910155604051339082907f0164f13ecb08d927eb3e124fb0d115b0297b2b1809023e79780ae2ac0c3648c7906108df908a908a9088906113de565b60405180910390a395945050505050565b5f8281526020819052604090206001015461090a81610e2b565b6109148383610e35565b50505050565b6001600160a01b03811633146109435760405163334bd91960e11b815260040160405180910390fd5b6106cb8282610ec4565b610955610f2d565b5f61095f82610f5b565b60018101549091506001600160a01b031633146109af5760405162461bcd60e51b81526020600482015260096024820152682337b93134b23232b760b91b60448201526064015b60405180910390fd5b600154816005015410806109cc57506007810154610100900460ff165b156109ea57604051637c75aa6f60e11b815260040160405180910390fd5b80600401546004541015610a1157604051637c75aa6f60e11b815260040160405180910390fd5b60078101805460ff1916600117905560048082015481549091905f90610a38908490611415565b90915550506004810154335f9081526007602052604081208054909190610a60908490611261565b90915550506004810154604051339180156108fc02915f818181858888f19350505050158015610a92573d5f5f3e3d5ffd5b50336001600160a01b0316827f6d46424d7308d93179bbc5c8c01e098e8353dad13aff9809fd8a881a69feaa3a8360040154604051610ad391815260200190565b60405180910390a350610b0560017f9b779b17422d0df92223018b32b4d1fa46e071723d6817e2486d003becc55f0055565b50565b5f918252602082815260408084206001600160a01b0393909316845291905290205460ff1690565b5f5160206114295f395f51905f52610b4781610e2b565b5f610b5183610f5b565b5f84815260066020908152604080832033845290915290205490915060ff1615610b8e57604051637c9a1cf960e01b815260040160405180910390fd5b5f8381526006602081815260408084203385529091528220805460ff19166001908117909155908301805491929091610bc8908490611261565b9091555050600254600682015410610bec5760078101805461ff0019166101001790555b336001600160a01b0316837fa56247ad485b273a6f00eb3967b74e01c4e3c52229a4330b4b3ae5b6f9db63828360060154604051610c2c91815260200190565b60405180910390a3505050565b610c433334610483565b565b5f5160206114295f395f51905f52610c5c81610e2b565b5f610c6683610f5b565b90507f00000000000000000000000000000000000000000000000000000000000000008160080154610c989190611261565b421115610cb857604051633ddfdb7f60e11b815260040160405180910390fd5b5f83815260066020908152604080832033845290915290205460ff1615610cf257604051637c9a1cf960e01b815260040160405180910390fd5b5f8381526006602090815260408083203384529091528120805460ff1916600190811790915560058301805491929091610d2d908490611261565b90915550506005810154604051908152339084907f48dbac193e8dd85678337b80a925dd9b01a747500675012ab4e8e994e31da3e090602001610c2c565b5f610d7581610e2b565b6106cb5f5160206114295f395f51905f5283610ec4565b5f82815260208190526040902060010154610da681610e2b565b6109148383610ec4565b5f610dba81610e2b565b821580610dc5575081155b15610de35760405163aabd5a0960e01b815260040160405180910390fd5b6001839055600282905560408051848152602081018490527fd081f5afbf5e2859f2be3d6c573e1cdd6c8fb93b18ec6145427882fe51507b6a910160405180910390a1505050565b610b058133610fb5565b5f610e408383610b08565b610ebd575f838152602081815260408083206001600160a01b03861684529091529020805460ff19166001179055610e753390565b6001600160a01b0316826001600160a01b0316847f2f8788117e7eff1d82e926ec794901d17c78024a50270940304540a733656f0d60405160405180910390a45060016106a4565b505f6106a4565b5f610ecf8383610b08565b15610ebd575f838152602081815260408083206001600160a01b0386168085529252808320805460ff1916905551339286917ff6391f5c32d9c69d2a47ea670b442974b53935d1edc7fd64eb21e047a839171b9190a45060016106a4565b610f35610ff2565b60027f9b779b17422d0df92223018b32b4d1fa46e071723d6817e2486d003becc55f0055565b5f8181526005602052604081208054909103610f8a5760405163bd8ba84d60e01b815260040160405180910390fd5b600781015460ff1615610fb05760405163af11575160e01b815260040160405180910390fd5b919050565b610fbf8282610b08565b610fee5760405163e2517d3f60e01b81526001600160a01b0382166004820152602481018390526044016109a6565b5050565b7f9b779b17422d0df92223018b32b4d1fa46e071723d6817e2486d003becc55f0054600203610c4357604051633ee5aeb560e01b815260040160405180910390fd5b5f60208284031215611044575f5ffd5b5035919050565b5f81518084528060208401602086015e5f602082860101526020601f19601f83011685010191505092915050565b8a81526001600160a01b038a166020820152610140604082018190525f906110a39083018b61104b565b82810360608401526110b5818b61104b565b6080840199909952505060a081019590955260c085019390935290151560e0840152151561010083015261012090910152949350505050565b5f602082840312156110fe575f5ffd5b81356001600160e01b031981168114611115575f5ffd5b9392505050565b80356001600160a01b0381168114610fb0575f5ffd5b5f60208284031215611142575f5ffd5b6111158261111c565b5f5f83601f84011261115b575f5ffd5b50813567ffffffffffffffff811115611172575f5ffd5b602083019150836020828501011115611189575f5ffd5b9250929050565b5f5f5f5f5f606086880312156111a4575f5ffd5b853567ffffffffffffffff8111156111ba575f5ffd5b6111c68882890161114b565b909650945050602086013567ffffffffffffffff8111156111e5575f5ffd5b6111f18882890161114b565b96999598509660400135949350505050565b5f5f60408385031215611214575f5ffd5b823591506112246020840161111c565b90509250929050565b5f5f6040838503121561123e575f5ffd5b50508035926020909101359150565b634e487b7160e01b5f52601160045260245ffd5b808201808211156106a4576106a461124d565b600181811c9082168061128857607f821691505b6020821081036112a657634e487b7160e01b5f52602260045260245ffd5b50919050565b5f600182016112bd576112bd61124d565b5060010190565b634e487b7160e01b5f52604160045260245ffd5b601f8211156106cb57805f5260205f20601f840160051c810160208510156112fd5750805b601f840160051c820191505b8181101561131c575f8155600101611309565b5050505050565b815167ffffffffffffffff81111561133d5761133d6112c4565b6113518161134b8454611274565b846112d8565b6020601f821160018114611383575f831561136c5750848201515b5f19600385901b1c1916600184901b17845561131c565b5f84815260208120601f198516915b828110156113b25787850151825560209485019460019092019101611392565b50848210156113cf57868401515f19600387901b60f8161c191681555b50505050600190811b01905550565b60408152826040820152828460608301375f606084830101525f6060601f19601f8601168301019050826020830152949350505050565b818103818111156106a4576106a461124d56feca77cd8f9856ef5fcd36f6b15bf469fe216c2f9114f60dd031f0a2b97b67aaa9a2646970667358221220d2bd263a7ffdd67c2344494267109781d1a982cfacbbf030a60e772394884d9664736f6c634300081c0033",
  "linkReferences": {},
  "deployedLinkReferences": {}
}