{
  "_format": "hh-sol-artifact-1",
  "contractName": "PrivateConvictionVoting",
  "sourceName": "src/PrivateConvictionVoting.sol",
  "abi": [
    {
      "inputs": [
        {
          "internalType": "address",
          "name": "initialOwner",
          "type": "address"
        }
      ],
      "stateMutability": "nonpayable",
      "type": "constructor"
    },
    {
      "inputs": [],
      "name": "AlreadyVoted",
      "type": "error"
    },
    {
      "inputs": [],
      "name": "InvalidKMSSignatures",
      "type": "error"
    },
    {
      "inputs": [],
      "name": "InvalidProposal",
      "type": "error"
    },
    {
      "inputs": [],
      "name": "InvalidURI",
      "type": "error"
    },
    {
      "inputs": [
        {
          "internalType": "address",
          "name": "owner",
          "type": "address"
        }
      ],
      "name": "OwnableInvalidOwner",
      "type": "error"
    },
    {
      "inputs": [
        {
          "internalType": "address",
          "name": "account",
          "type": "address"
        }
      ],
      "name": "OwnableUnauthorizedAccount",
      "type": "error"
    },
    {
      "inputs": [
        {
          "internalType": "bytes32",
          "name": "handle",
          "type": "bytes32"
        },
        {
          "internalType": "address",
          "name": "sender",
          "type": "address"
        }
      ],
      "name": "SenderNotAllowedToUseHandle",
      "type": "error"
    },
    {
      "inputs": [],
      "name": "ZamaProtocolUnsupported",
      "type": "error"
    },
    {
      "anonymous": false,
      "inputs": [
        {
          "indexed": true,
          "internalType": "address",
          "name": "previousOwner",
          "type": "address"
        },
        {
          "indexed": true,
          "internalType": "address",
          "name": "newOwner",
          "type": "address"
        }
      ],
      "name": "OwnershipTransferred",
      "type": "event"
    },
    {
      "anonymous": false,
      "inputs": [
        {
          "indexed": true,
          "internalType": "uint256",
          "name": "proposalId",
          "type": "uint256"
        },
        {
          "indexed": true,
          "internalType": "address",
          "name": "voter",
          "type": "address"
        }
      ],
      "name": "PrivateBallotCast",
      "type": "event"
    },
    {
      "anonymous": false,
      "inputs": [
        {
          "indexed": true,
          "internalType": "uint256",
          "name": "id",
          "type": "uint256"
        },
        {
          "indexed": true,
          "internalType": "uint256",
          "name": "publicProposalId",
          "type": "uint256"
        },
        {
          "indexed": true,
          "internalType": "address",
          "name": "proposer",
          "type": "address"
        },
        {
          "indexed": false,
          "internalType": "string",
          "name": "metadataURI",
          "type": "string"
        }
      ],
      "name": "PrivateProposalCreated",
      "type": "event"
    },
    {
      "anonymous": false,
      "inputs": [
        {
          "indexed": false,
          "internalType": "bytes32[]",
          "name": "handlesList",
          "type": "bytes32[]"
        },
        {
          "indexed": false,
          "internalType": "bytes",
          "name": "abiEncodedCleartexts",
          "type": "bytes"
        }
      ],
      "name": "PublicDecryptionVerified",
      "type": "event"
    },
    {
      "anonymous": false,
      "inputs": [
        {
          "indexed": true,
          "internalType": "uint256",
          "name": "proposalId",
          "type": "uint256"
        },
        {
          "indexed": false,
          "internalType": "uint64",
          "name": "support",
          "type": "uint64"
        },
        {
          "indexed": false,
          "internalType": "uint64",
          "name": "opposition",
          "type": "uint64"
        }
      ],
      "name": "PublicTallyPublished",
      "type": "event"
    },
    {
      "anonymous": false,
      "inputs": [
        {
          "indexed": true,
          "internalType": "uint256",
          "name": "proposalId",
          "type": "uint256"
        },
        {
          "indexed": false,
          "internalType": "bytes32",
          "name": "supportHandle",
          "type": "bytes32"
        },
        {
          "indexed": false,
          "internalType": "bytes32",
          "name": "oppositionHandle",
          "type": "bytes32"
        }
      ],
      "name": "PublicTallyRequested",
      "type": "event"
    },
    {
      "inputs": [
        {
          "internalType": "uint256",
          "name": "proposalId",
          "type": "uint256"
        },
        {
          "internalType": "externalEuint64",
          "name": "encryptedWeight",
          "type": "bytes32"
        },
        {
          "internalType": "externalEbool",
          "name": "encryptedSupport",
          "type": "bytes32"
        },
        {
          "internalType": "bytes",
          "name": "inputProof",
          "type": "bytes"
        }
      ],
      "name": "castBallot",
      "outputs": [],
      "stateMutability": "nonpayable",
      "type": "function"
    },
    {
      "inputs": [],
      "name": "confidentialProtocolId",
      "outputs": [
        {
          "internalType": "uint256",
          "name": "",
          "type": "uint256"
        }
      ],
      "stateMutability": "view",
      "type": "function"
    },
    {
      "inputs": [
        {
          "internalType": "uint256",
          "name": "publicProposalId",
          "type": "uint256"
        },
        {
          "internalType": "string",
          "name": "metadataURI",
          "type": "string"
        }
      ],
      "name": "createProposal",
      "outputs": [
        {
          "internalType": "uint256",
          "name": "privateProposalId",
          "type": "uint256"
        }
      ],
      "stateMutability": "nonpayable",
      "type": "function"
    },
    {
      "inputs": [
        {
          "internalType": "uint256",
          "name": "proposalId",
          "type": "uint256"
        }
      ],
      "name": "encryptedTotals",
      "outputs": [
        {
          "internalType": "euint64",
          "name": "support",
          "type": "bytes32"
        },
        {
          "internalType": "euint64",
          "name": "opposition",
          "type": "bytes32"
        }
      ],
      "stateMutability": "view",
      "type": "function"
    },
    {
      "inputs": [
        {
          "internalType": "uint256",
          "name": "",
          "type": "uint256"
        },
        {
          "internalType": "address",
          "name": "",
          "type": "address"
        }
      ],
      "name": "hasVoted",
      "outputs": [
        {
          "internalType": "bool",
          "name": "",
          "type": "bool"
        }
      ],
      "stateMutability": "view",
      "type": "function"
    },
    {
      "inputs": [
        {
          "internalType": "uint256",
          "name": "proposalId",
          "type": "uint256"
        }
      ],
      "name": "myEncryptedBallot",
      "outputs": [
        {
          "internalType": "euint64",
          "name": "support",
          "type": "bytes32"
        },
        {
          "internalType": "euint64",
          "name": "opposition",
          "type": "bytes32"
        }
      ],
      "stateMutability": "view",
      "type": "function"
    },
    {
      "inputs": [],
      "name": "owner",
      "outputs": [
        {
          "internalType": "address",
          "name": "",
          "type": "address"
        }
      ],
      "stateMutability": "view",
      "type": "function"
    },
    {
      "inputs": [],
      "name": "proposalCount",
      "outputs": [
        {
          "internalType": "uint256",
          "name": "",
          "type": "uint256"
        }
      ],
      "stateMutability": "view",
      "type": "function"
    },
    {
      "inputs": [
        {
          "internalType": "uint256",
          "name": "",
          "type": "uint256"
        }
      ],
      "name": "proposals",
      "outputs": [
        {
          "internalType": "uint256",
          "name": "id",
          "type": "uint256"
        },
        {
          "internalType": "uint256",
          "name": "publicProposalId",
          "type": "uint256"
        },
        {
          "internalType": "address",
          "name": "proposer",
          "type": "address"
        },
        {
          "internalType": "string",
          "name": "metadataURI",
          "type": "string"
        },
        {
          "internalType": "uint256",
          "name": "ballotCount",
          "type": "uint256"
        },
        {
          "internalType": "uint64",
          "name": "latestSupport",
          "type": "uint64"
        },
        {
          "internalType": "uint64",
          "name": "latestOpposition",
          "type": "uint64"
        },
        {
          "internalType": "uint256",
          "name": "latestTallyAt",
          "type": "uint256"
        },
        {
          "internalType": "uint256",
          "name": "createdAt",
          "type": "uint256"
        }
      ],
      "stateMutability": "view",
      "type": "function"
    },
    {
      "inputs": [
        {
          "internalType": "uint256",
          "name": "proposalId",
          "type": "uint256"
        },
        {
          "internalType": "uint64",
          "name": "support",
          "type": "uint64"
        },
        {
          "internalType": "uint64",
          "name": "opposition",
          "type": "uint64"
        },
        {
          "internalType": "bytes",
          "name": "decryptionProof",
          "type": "bytes"
        }
      ],
      "name": "publishPublicTally",
      "outputs": [],
      "stateMutability": "nonpayable",
      "type": "function"
    },
    {
      "inputs": [],
      "name": "renounceOwnership",
      "outputs": [],
      "stateMutability": "nonpayable",
      "type": "function"
    },
    {
      "inputs": [
        {
          "internalType": "uint256",
          "name": "proposalId",
          "type": "uint256"
        }
      ],
      "name": "requestPublicTally",
      "outputs": [],
      "stateMutability": "nonpayable",
      "type": "function"
    },
    {
      "inputs": [
        {
          "internalType": "address",
          "name": "newOwner",
          "type": "address"
        }
      ],
      "name": "transferOwnership",
      "outputs": [],
      "stateMutability": "nonpayable",
      "type": "function"
    }
  ],
  "bytecode": "0x608060405234801561000f575f5ffd5b50604051611cfc380380611cfc83398101604081905261002e9161031e565b806100e361003a610120565b80517f9e7b61f58c47dc699ac88507c4f5bb9f121c03808c5676a8078fe583e464970080546001600160a01b03199081166001600160a01b039384161790915560208301517f9e7b61f58c47dc699ac88507c4f5bb9f121c03808c5676a8078fe583e46497018054831691841691909117905560408301517f9e7b61f58c47dc699ac88507c4f5bb9f121c03808c5676a8078fe583e46497028054909216921691909117905550565b6001600160a01b03811661011057604051631e4fbdf760e01b81525f600482015260240160405180910390fd5b610119816102cf565b505061034b565b604080516060810182525f8082526020820181905291810191909152466001036101b9575060408051606080820183525f8083526020808401829052928401528251908101835273ca2e8f1f656cd25c01f05d0b243ab1ecd4a8ffb6815273d82385dada1ae3e969447f20a3164f6213100e75918101919091527377627828a55156b04ac0dc0eb30467f1a552bb039181019190915290565b4662aa36a703610238575060408051606080820183525f8083526020808401829052928401528251908101835273f0ffdc93b7e186bc2f8cb3daa75d86d1930a433d81527392c920834ec8941d2c77d188936e1f7a6f49c1279181019190915273be0e383937d564d7ff0bc3b46c51f0bf8d5c311a9181019190915290565b46617a69036102b6575060408051606080820183525f808352602080840182905292840152825190810183527350157cffd6bbfa2dece204a89ec419c23ef5755d815273e3a9105a3a932253a70f126eb1e3b589c643dd249181019190915273be0e383937d564d7ff0bc3b46c51f0bf8d5c311a9181019190915290565b6040516373cac13b60e01b815260040160405180910390fd5b5f80546001600160a01b038381166001600160a01b0319831681178455604051919092169283917f8be0079c531659141344cd1fd0a4f28419497f9722a3daafe3b4186f6b6457e09190a35050565b5f6020828403121561032e575f5ffd5b81516001600160a01b0381168114610344575f5ffd5b9392505050565b6119a4806103585f395ff3fe608060405234801561000f575f5ffd5b50600436106100cb575f3560e01c80638a75197611610088578063b1c55daa11610063578063b1c55daa146101d8578063da35c664146101eb578063ef26b9fa146101f4578063f2fde38b14610207575f5ffd5b80638a751976146101835780638da5cb5b146101965780639122ab3f146101b0575f5ffd5b8063013cf08b146100cf57806302d52fa4146101005780633588abf5146101215780634385963214610136578063715018a6146101735780638927b0301461017b575b5f5ffd5b6100e26100dd3660046113dd565b61021a565b6040516100f799989796959493929190611422565b60405180910390f35b61011361010e3660046114ca565b610304565b6040519081526020016100f7565b61013461012f366004611512565b61054b565b005b610163610144366004611589565b600360209081525f928352604080842090915290825290205460ff1681565b60405190151581526020016100f7565b6101346108a7565b6101136108ba565b6101346101913660046115ca565b6108c8565b5f546040516001600160a01b0390911681526020016100f7565b6101c36101be3660046113dd565b610a65565b604080519283526020830191909152016100f7565b6101c36101e63660046113dd565b610ab4565b61011360015481565b6101346102023660046113dd565b610b17565b610134610215366004611617565b610bcd565b600260208190525f918252604090912080546001820154928201546003830180549294936001600160a01b039092169261025390611630565b80601f016020809104026020016040519081016040528092919081815260200182805461027f90611630565b80156102ca5780601f106102a1576101008083540402835291602001916102ca565b820191905f5260205f20905b8154815290600101906020018083116102ad57829003601f168201915b5050506004840154600585015460068601546007909601549495919467ffffffffffffffff8083169550600160401b909204909116925089565b5f81810361032557604051633ba0191160e01b815260040160405180910390fd5b60015f81546103339061167c565b9190508190559050604051806101200160405280828152602001858152602001336001600160a01b0316815260200184848080601f0160208091040260200160405190810160405280939291908181526020018383808284375f920182905250938552505050602080830182905260408084018390526060808501849052608085018490524260a0909501949094528583526002808352928190208551815591850151600183015584015191810180546001600160a01b0319166001600160a01b039093169290921790915590820151600382019061041290826116f4565b506080820151600482015560a082015160058201805460c085015167ffffffffffffffff908116600160401b026001600160801b031990921693169290921791909117905560e08201516006820155610100909101516007909101556104775f610c0f565b5f8281526006602052604081209190915561049190610c0f565b5f828152600760209081526040808320939093556006905220546104b490610c2b565b505f818152600760205260409020546104cc90610c2b565b505f818152600660205260409020546104e59033610c4b565b505f818152600760205260409020546104fe9033610c4b565b50336001600160a01b031684827f153f9aa9211751f02ebe2f3f88c57a3e9a74bd4d0808a627d837a1e558c9699a868660405161053c9291906117af565b60405180910390a49392505050565b5f858152600260205260408120805490910361057a57604051631dc0650160e31b815260040160405180910390fd5b5f86815260036020908152604080832033845290915290205460ff16156105b457604051637c9a1cf960e01b815260040160405180910390fd5b5f6105f48685858080601f0160208091040260200160405190810160405280939291908181526020018383808284375f92019190915250610c6e92505050565b90505f6106368686868080601f0160208091040260200160405190810160405280939291908181526020018383808284375f92019190915250610cd492505050565b90505f6106425f610c0f565b90505f610650838584610cfa565b90505f61065e848487610cfa565b5f8c8152600460209081526040808320338085529083528184208790558f84526005835281842090845282528083208490558e835260069091529020549091506106a89083610d43565b5f8c8152600660209081526040808320939093556007905220546106cc9082610d43565b5f8c81526007602090815260408083209390935560048152828220338352905220546106f790610c2b565b505f8b815260056020908152604080832033845290915290205461071a90610c2b565b505f8b81526006602052604090205461073290610c2b565b505f8b81526007602052604090205461074a90610c2b565b505f8b81526004602090815260408083203380855292529091205461076e91610c4b565b505f8b81526005602090815260408083203380855292529091205461079291610c4b565b505f8b81526006602052604090205460028701546107b991906001600160a01b0316610c4b565b505f8b81526007602052604090205460028701546107e091906001600160a01b0316610c4b565b505f8b815260066020526040902054610809906108045f546001600160a01b031690565b610c4b565b505f8b81526007602052604090205461082d906108045f546001600160a01b031690565b505f8b81526003602090815260408083203384529091528120805460ff19166001908117909155600488018054919290916108699084906117dd565b909155505060405133908c907f2a19124a44ee17e8649020455da80c31c500e03b153ecbc16b10105b22d27952905f90a35050505050505050505050565b6108af610d71565b6108b85f610d9d565b565b5f6108c3610dec565b905090565b5f85815260026020526040812080549091036108f757604051631dc0650160e31b815260040160405180910390fd5b6040805160028082526060820183525f92602083019080368337019050505f88815260066020526040902054909150815f81518110610938576109386117f0565b60200260200101818152505061095c60075f8981526020019081526020015f205490565b8160018151811061096f5761096f6117f0565b6020026020010181815250506109eb8187876040516020016109a892919067ffffffffffffffff92831681529116602082015260400190565b60408051601f198184030181526020601f8901819004810284018101909252878352919088908890819084018382808284375f92019190915250610e2092505050565b60058201805467ffffffffffffffff8881166001600160801b03199092168217600160401b9189169182021790925542600685015560408051918252602082019290925288917fcaa7af7712ea7d0c566b9942ed00f6e4deb1d23dc8d268b3f34d1d6a29dfd8e8910160405180910390a250505050505050565b5f8181526002602052604081205481908103610a9457604051631dc0650160e31b815260040160405180910390fd5b50505f908152600660209081526040808320546007909252909120549091565b5f8181526002602052604081205481908103610ae357604051631dc0650160e31b815260040160405180910390fd5b50505f8181526004602090815260408083203380855290835281842054948452600583528184209084529091529020549091565b5f8181526002602052604081208054909103610b4657604051631dc0650160e31b815260040160405180910390fd5b5f82815260066020526040902054610b5d90610e8b565b505f82815260076020526040902054610b7590610e8b565b505f8281526006602090815260408083205460078352928190205481519384529183019190915283917f4ecc133c76df103306afe4128ae9a27f6e6278b2bdaf986656a7991c8f290eac910160405180910390a25050565b610bd5610d71565b6001600160a01b038116610c0357604051631e4fbdf760e01b81525f60048201526024015b60405180910390fd5b610c0c81610d9d565b50565b5f610c258267ffffffffffffffff166005610ea6565b92915050565b5f81610c3d57610c3a5f610c0f565b91505b610c478230610f50565b5090565b5f82610c5d57610c5a5f610c0f565b92505b610c678383610f50565b5090919050565b5f81515f14610c8a57610c8383836005610fc4565b9050610c25565b825f819003610ca457610c9c5f610c0f565b915050610c25565b610cae81336110d1565b610c8357604051630276b5d960e01b815260048101829052336024820152604401610bfa565b5f81515f14610ce857610c8383835f610fc4565b825f819003610ca457610c9c5f611155565b5f83610d0c57610d095f611155565b93505b82610d1d57610d1a5f610c0f565b92505b81610d2e57610d2b5f610c0f565b91505b610d39848484611170565b90505b9392505050565b5f82610d5557610d525f610c0f565b92505b81610d6657610d635f610c0f565b91505b610d3c83835f611206565b5f546001600160a01b031633146108b85760405163118cdaa760e01b8152336004820152602401610bfa565b5f80546001600160a01b038381166001600160a01b0319831681178455604051919092169283917f8be0079c531659141344cd1fd0a4f28419497f9722a3daafe3b4186f6b6457e09190a35050565b5f46600103610dfb5750600190565b4662aa36a703610e0c575061271190565b46617a6903610e1b57505f1990565b505f90565b5f610e2c8484846112bb565b905080610e4c5760405163cf6c44e960e01b815260040160405180910390fd5b7fc6366bab028b8d033cb362cfd1f2f3457ef4e92fc738b6788b90d5a7846367a08484604051610e7d92919061183e565b60405180910390a150505050565b5f81610e9d57610e9a5f610c0f565b91505b610c478261135f565b7f9e7b61f58c47dc699ac88507c4f5bb9f121c03808c5676a8078fe583e464970154604051639cd07acb60e01b81525f915f51602061194f5f395f51905f52916001600160a01b0390911690639cd07acb90610f089087908790600401611882565b6020604051808303815f875af1158015610f24573d5f5f3e3d5ffd5b505050506040513d601f19601f82011682018060405250810190610f489190611896565b949350505050565b5f51602061194f5f395f51905f528054604051635ca4b5b160e11b8152600481018590526001600160a01b0384811660248301529091169063b9496b62906044015b5f604051808303815f87803b158015610fa9575f5ffd5b505af1158015610fbb573d5f5f3e3d5ffd5b50505050505050565b7f9e7b61f58c47dc699ac88507c4f5bb9f121c03808c5676a8078fe583e46497015460405163045fc19560e11b81525f915f51602061194f5f395f51905f52916001600160a01b03909116906308bf832a9061102a9088903390899089906004016118ad565b6020604051808303815f875af1158015611046573d5f5f3e3d5ffd5b505050506040513d601f19601f8201168201806040525081019061106a9190611896565b8154604051630f8e573b60e21b8152600481018390523360248201529193506001600160a01b031690633e395cec906044015f604051808303815f87803b1580156110b3575f5ffd5b505af11580156110c5573d5f5f3e3d5ffd5b50505050509392505050565b5f805f51602061194f5f395f51905f5280546040516382027b6d60e01b8152600481018790526001600160a01b0386811660248301529293509116906382027b6d90604401602060405180830381865afa158015611131573d5f5f3e3d5ffd5b505050506040513d601f19601f82011682018060405250810190610f4891906118e5565b5f610c2582611164575f611167565b60015b60ff165f610ea6565b5f805f51602061194f5f395f51905f526001810154604051637702dcff60e01b81526004810188905260248101879052604481018690529192506001600160a01b031690637702dcff906064016020604051808303815f875af11580156111d9573d5f5f3e3d5ffd5b505050506040513d601f19601f820116820180604052508101906111fd9190611896565b95945050505050565b5f5f82156112195750600160f81b61121c565b505f5b5f5f51602061194f5f395f51905f52600181015460405163022f65e760e31b815260048101899052602481018890526001600160f81b0319851660448201529192506001600160a01b03169063117b2f38906064016020604051808303815f875af115801561128d573d5f5f3e3d5ffd5b505050506040513d601f19601f820116820180604052508101906112b19190611896565b9695505050505050565b7f9e7b61f58c47dc699ac88507c4f5bb9f121c03808c5676a8078fe583e4649702546040516378542ead60e01b81525f915f51602061194f5f395f51905f52916001600160a01b03909116906378542ead9061131f90889088908890600401611904565b6020604051808303815f875af115801561133b573d5f5f3e3d5ffd5b505050506040513d601f19601f820116820180604052508101906111fd91906118e5565b6040805160018082528183019092525f51602061194f5f395f51905f52915f91906020808301908036833701905050905082815f815181106113a3576113a36117f0565b60209081029190910101528154604051637d6e912360e11b81526001600160a01b039091169063fadd224690610f9290849060040161193c565b5f602082840312156113ed575f5ffd5b5035919050565b5f81518084528060208401602086015e5f602082860101526020601f19601f83011685010191505092915050565b89815288602082015260018060a01b038816604082015261012060608201525f6114506101208301896113f4565b60808301979097525067ffffffffffffffff94851660a08201529290931660c083015260e08201526101000152949350505050565b5f5f83601f840112611495575f5ffd5b50813567ffffffffffffffff8111156114ac575f5ffd5b6020830191508360208285010111156114c3575f5ffd5b9250929050565b5f5f5f604084860312156114dc575f5ffd5b83359250602084013567ffffffffffffffff8111156114f9575f5ffd5b61150586828701611485565b9497909650939450505050565b5f5f5f5f5f60808688031215611526575f5ffd5b853594506020860135935060408601359250606086013567ffffffffffffffff811115611551575f5ffd5b61155d88828901611485565b969995985093965092949392505050565b80356001600160a01b0381168114611584575f5ffd5b919050565b5f5f6040838503121561159a575f5ffd5b823591506115aa6020840161156e565b90509250929050565b803567ffffffffffffffff81168114611584575f5ffd5b5f5f5f5f5f608086880312156115de575f5ffd5b853594506115ee602087016115b3565b93506115fc604087016115b3565b9250606086013567ffffffffffffffff811115611551575f5ffd5b5f60208284031215611627575f5ffd5b610d3c8261156e565b600181811c9082168061164457607f821691505b60208210810361166257634e487b7160e01b5f52602260045260245ffd5b50919050565b634e487b7160e01b5f52601160045260245ffd5b5f6001820161168d5761168d611668565b5060010190565b634e487b7160e01b5f52604160045260245ffd5b601f8211156116ef57805f5260205f20601f840160051c810160208510156116cd5750805b601f840160051c820191505b818110156116ec575f81556001016116d9565b50505b505050565b815167ffffffffffffffff81111561170e5761170e611694565b6117228161171c8454611630565b846116a8565b6020601f821160018114611754575f831561173d5750848201515b5f19600385901b1c1916600184901b1784556116ec565b5f84815260208120601f198516915b828110156117835787850151825560209485019460019092019101611763565b50848210156117a057868401515f19600387901b60f8161c191681555b50505050600190811b01905550565b60208152816020820152818360408301375f818301604090810191909152601f909201601f19160101919050565b80820180821115610c2557610c25611668565b634e487b7160e01b5f52603260045260245ffd5b5f8151808452602084019350602083015f5b82811015611834578151865260209586019590910190600101611816565b5093949350505050565b604081525f6118506040830185611804565b82810360208401526111fd81856113f4565b6054811061187e57634e487b7160e01b5f52602160045260245ffd5b9052565b82815260408101610d3c6020830184611862565b5f602082840312156118a6575f5ffd5b5051919050565b8481526001600160a01b03841660208201526080604082018190525f906118d6908301856113f4565b90506111fd6060830184611862565b5f602082840312156118f5575f5ffd5b81518015158114610d3c575f5ffd5b606081525f6119166060830186611804565b828103602084015261192881866113f4565b905082810360408401526112b181856113f4565b602081525f610d3c602083018461180456fe9e7b61f58c47dc699ac88507c4f5bb9f121c03808c5676a8078fe583e4649700a26469706673582212203fc291ba29221de1dbb230da22eee4c4d232488ababddc06943106b3d2a60ffc64736f6c634300081c0033",
  "linkReferences": {},
  "deployedLinkReferences": {}
}