{
  "_format": "hh-sol-artifact-1",
  "contractName": "CommonWealthToken",
  "sourceName": "src/CommonWealthToken.sol",
  "abi": [
    {
      "inputs": [
        {
          "internalType": "address",
          "name": "initialOwner",
          "type": "address"
        },
        {
          "internalType": "uint256",
          "name": "initialSupply",
          "type": "uint256"
        },
        {
          "internalType": "uint256",
          "name": "faucetAmount_",
          "type": "uint256"
        },
        {
          "internalType": "uint256",
          "name": "faucetCooldown_",
          "type": "uint256"
        }
      ],
      "stateMutability": "nonpayable",
      "type": "constructor"
    },
    {
      "inputs": [
        {
          "internalType": "uint256",
          "name": "nextClaimAt",
          "type": "uint256"
        }
      ],
      "name": "ClaimTooSoon",
      "type": "error"
    },
    {
      "inputs": [
        {
          "internalType": "address",
          "name": "spender",
          "type": "address"
        },
        {
          "internalType": "uint256",
          "name": "allowance",
          "type": "uint256"
        },
        {
          "internalType": "uint256",
          "name": "needed",
          "type": "uint256"
        }
      ],
      "name": "ERC20InsufficientAllowance",
      "type": "error"
    },
    {
      "inputs": [
        {
          "internalType": "address",
          "name": "sender",
          "type": "address"
        },
        {
          "internalType": "uint256",
          "name": "balance",
          "type": "uint256"
        },
        {
          "internalType": "uint256",
          "name": "needed",
          "type": "uint256"
        }
      ],
      "name": "ERC20InsufficientBalance",
      "type": "error"
    },
    {
      "inputs": [
        {
          "internalType": "address",
          "name": "approver",
          "type": "address"
        }
      ],
      "name": "ERC20InvalidApprover",
      "type": "error"
    },
    {
      "inputs": [
        {
          "internalType": "address",
          "name": "receiver",
          "type": "address"
        }
      ],
      "name": "ERC20InvalidReceiver",
      "type": "error"
    },
    {
      "inputs": [
        {
          "internalType": "address",
          "name": "sender",
          "type": "address"
        }
      ],
      "name": "ERC20InvalidSender",
      "type": "error"
    },
    {
      "inputs": [
        {
          "internalType": "address",
          "name": "spender",
          "type": "address"
        }
      ],
      "name": "ERC20InvalidSpender",
      "type": "error"
    },
    {
      "inputs": [],
      "name": "InvalidConfig",
      "type": "error"
    },
    {
      "inputs": [
        {
          "internalType": "address",
          "name": "owner",
          "type": "address"
        }
      ],
      "name": "OwnableInvalidOwner",
      "type": "error"
    },
    {
      "inputs": [
        {
          "internalType": "address",
          "name": "account",
          "type": "address"
        }
      ],
      "name": "OwnableUnauthorizedAccount",
      "type": "error"
    },
    {
      "anonymous": false,
      "inputs": [
        {
          "indexed": true,
          "internalType": "address",
          "name": "owner",
          "type": "address"
        },
        {
          "indexed": true,
          "internalType": "address",
          "name": "spender",
          "type": "address"
        },
        {
          "indexed": false,
          "internalType": "uint256",
          "name": "value",
          "type": "uint256"
        }
      ],
      "name": "Approval",
      "type": "event"
    },
    {
      "anonymous": false,
      "inputs": [
        {
          "indexed": true,
          "internalType": "address",
          "name": "account",
          "type": "address"
        },
        {
          "indexed": false,
          "internalType": "uint256",
          "name": "amount",
          "type": "uint256"
        },
        {
          "indexed": false,
          "internalType": "uint256",
          "name": "claimedAt",
          "type": "uint256"
        }
      ],
      "name": "FaucetClaimed",
      "type": "event"
    },
    {
      "anonymous": false,
      "inputs": [
        {
          "indexed": false,
          "internalType": "uint256",
          "name": "amount",
          "type": "uint256"
        },
        {
          "indexed": false,
          "internalType": "uint256",
          "name": "cooldown",
          "type": "uint256"
        }
      ],
      "name": "FaucetUpdated",
      "type": "event"
    },
    {
      "anonymous": false,
      "inputs": [
        {
          "indexed": true,
          "internalType": "address",
          "name": "previousOwner",
          "type": "address"
        },
        {
          "indexed": true,
          "internalType": "address",
          "name": "newOwner",
          "type": "address"
        }
      ],
      "name": "OwnershipTransferred",
      "type": "event"
    },
    {
      "anonymous": false,
      "inputs": [
        {
          "indexed": true,
          "internalType": "address",
          "name": "from",
          "type": "address"
        },
        {
          "indexed": true,
          "internalType": "address",
          "name": "to",
          "type": "address"
        },
        {
          "indexed": false,
          "internalType": "uint256",
          "name": "value",
          "type": "uint256"
        }
      ],
      "name": "Transfer",
      "type": "event"
    },
    {
      "inputs": [
        {
          "internalType": "address",
          "name": "owner",
          "type": "address"
        },
        {
          "internalType": "address",
          "name": "spender",
          "type": "address"
        }
      ],
      "name": "allowance",
      "outputs": [
        {
          "internalType": "uint256",
          "name": "",
          "type": "uint256"
        }
      ],
      "stateMutability": "view",
      "type": "function"
    },
    {
      "inputs": [
        {
          "internalType": "address",
          "name": "spender",
          "type": "address"
        },
        {
          "internalType": "uint256",
          "name": "value",
          "type": "uint256"
        }
      ],
      "name": "approve",
      "outputs": [
        {
          "internalType": "bool",
          "name": "",
          "type": "bool"
        }
      ],
      "stateMutability": "nonpayable",
      "type": "function"
    },
    {
      "inputs": [
        {
          "internalType": "address",
          "name": "account",
          "type": "address"
        }
      ],
      "name": "balanceOf",
      "outputs": [
        {
          "internalType": "uint256",
          "name": "",
          "type": "uint256"
        }
      ],
      "stateMutability": "view",
      "type": "function"
    },
    {
      "inputs": [],
      "name": "claimFaucet",
      "outputs": [
        {
          "internalType": "uint256",
          "name": "amount",
          "type": "uint256"
        }
      ],
      "stateMutability": "nonpayable",
      "type": "function"
    },
    {
      "inputs": [],
      "name": "decimals",
      "outputs": [
        {
          "internalType": "uint8",
          "name": "",
          "type": "uint8"
        }
      ],
      "stateMutability": "view",
      "type": "function"
    },
    {
      "inputs": [],
      "name": "faucetAmount",
      "outputs": [
        {
          "internalType": "uint256",
          "name": "",
          "type": "uint256"
        }
      ],
      "stateMutability": "view",
      "type": "function"
    },
    {
      "inputs": [],
      "name": "faucetCooldown",
      "outputs": [
        {
          "internalType": "uint256",
          "name": "",
          "type": "uint256"
        }
      ],
      "stateMutability": "view",
      "type": "function"
    },
    {
      "inputs": [
        {
          "internalType": "address",
          "name": "",
          "type": "address"
        }
      ],
      "name": "lastClaimAt",
      "outputs": [
        {
          "internalType": "uint256",
          "name": "",
          "type": "uint256"
        }
      ],
      "stateMutability": "view",
      "type": "function"
    },
    {
      "inputs": [
        {
          "internalType": "address",
          "name": "to",
          "type": "address"
        },
        {
          "internalType": "uint256",
          "name": "amount",
          "type": "uint256"
        }
      ],
      "name": "mint",
      "outputs": [],
      "stateMutability": "nonpayable",
      "type": "function"
    },
    {
      "inputs": [],
      "name": "name",
      "outputs": [
        {
          "internalType": "string",
          "name": "",
          "type": "string"
        }
      ],
      "stateMutability": "view",
      "type": "function"
    },
    {
      "inputs": [],
      "name": "owner",
      "outputs": [
        {
          "internalType": "address",
          "name": "",
          "type": "address"
        }
      ],
      "stateMutability": "view",
      "type": "function"
    },
    {
      "inputs": [],
      "name": "renounceOwnership",
      "outputs": [],
      "stateMutability": "nonpayable",
      "type": "function"
    },
    {
      "inputs": [
        {
          "internalType": "uint256",
          "name": "faucetAmount_",
          "type": "uint256"
        },
        {
          "internalType": "uint256",
          "name": "faucetCooldown_",
          "type": "uint256"
        }
      ],
      "name": "setFaucetConfig",
      "outputs": [],
      "stateMutability": "nonpayable",
      "type": "function"
    },
    {
      "inputs": [],
      "name": "symbol",
      "outputs": [
        {
          "internalType": "string",
          "name": "",
          "type": "string"
        }
      ],
      "stateMutability": "view",
      "type": "function"
    },
    {
      "inputs": [],
      "name": "totalSupply",
      "outputs": [
        {
          "internalType": "uint256",
          "name": "",
          "type": "uint256"
        }
      ],
      "stateMutability": "view",
      "type": "function"
    },
    {
      "inputs": [
        {
          "internalType": "address",
          "name": "to",
          "type": "address"
        },
        {
          "internalType": "uint256",
          "name": "value",
          "type": "uint256"
        }
      ],
      "name": "transfer",
      "outputs": [
        {
          "internalType": "bool",
          "name": "",
          "type": "bool"
        }
      ],
      "stateMutability": "nonpayable",
      "type": "function"
    },
    {
      "inputs": [
        {
          "internalType": "address",
          "name": "from",
          "type": "address"
        },
        {
          "internalType": "address",
          "name": "to",
          "type": "address"
        },
        {
          "internalType": "uint256",
          "name": "value",
          "type": "uint256"
        }
      ],
      "name": "transferFrom",
      "outputs": [
        {
          "internalType": "bool",
          "name": "",
          "type": "bool"
        }
      ],
      "stateMutability": "nonpayable",
      "type": "function"
    },
    {
      "inputs": [
        {
          "internalType": "address",
          "name": "newOwner",
          "type": "address"
        }
      ],
      "name": "transferOwnership",
      "outputs": [],
      "stateMutability": "nonpayable",
      "type": "function"
    }
  ],
  "bytecode": "0x608060405234801561000f575f5ffd5b50604051610ef0380380610ef083398101604081905261002e916102d4565b836040518060400160405280601281526020017121b7b6b6b7b72bb2b0b63a34102a37b5b2b760711b8152506040518060400160405280600381526020016210d5d560ea1b815250816003908161008591906103b3565b50600461009282826103b3565b5050506001600160a01b0381166100c357604051631e4fbdf760e01b81525f60048201526024015b60405180910390fd5b6100cc81610125565b506001600160a01b03841615806100e1575081155b806100ea575080155b15610108576040516306b7c75960e31b815260040160405180910390fd5b6006829055600781905561011c8484610176565b50505050610492565b600580546001600160a01b038381166001600160a01b0319831681179093556040519116919082907f8be0079c531659141344cd1fd0a4f28419497f9722a3daafe3b4186f6b6457e0905f90a35050565b6001600160a01b03821661019f5760405163ec442f0560e01b81525f60048201526024016100ba565b6101aa5f83836101ae565b5050565b6001600160a01b0383166101d8578060025f8282546101cd919061046d565b909155506102489050565b6001600160a01b0383165f908152602081905260409020548181101561022a5760405163391434e360e21b81526001600160a01b038516600482015260248101829052604481018390526064016100ba565b6001600160a01b0384165f9081526020819052604090209082900390555b6001600160a01b03821661026457600280548290039055610282565b6001600160a01b0382165f9081526020819052604090208054820190555b816001600160a01b0316836001600160a01b03167fddf252ad1be2c89b69c2b068fc378daa952ba7f163c4a11628f55a4df523b3ef836040516102c791815260200190565b60405180910390a3505050565b5f5f5f5f608085870312156102e7575f5ffd5b84516001600160a01b03811681146102fd575f5ffd5b60208601516040870151606090970151919890975090945092505050565b634e487b7160e01b5f52604160045260245ffd5b600181811c9082168061034357607f821691505b60208210810361036157634e487b7160e01b5f52602260045260245ffd5b50919050565b601f8211156103ae57805f5260205f20601f840160051c8101602085101561038c5750805b601f840160051c820191505b818110156103ab575f8155600101610398565b50505b505050565b81516001600160401b038111156103cc576103cc61031b565b6103e0816103da845461032f565b84610367565b6020601f821160018114610412575f83156103fb5750848201515b5f19600385901b1c1916600184901b1784556103ab565b5f84815260208120601f198516915b828110156104415787850151825560209485019460019092019101610421565b508482101561045e57868401515f19600387901b60f8161c191681555b50505050600190811b01905550565b8082018082111561048c57634e487b7160e01b5f52601160045260245ffd5b92915050565b610a518061049f5f395ff3fe608060405234801561000f575f5ffd5b5060043610610111575f3560e01c8063715018a61161009e5780639c2814301161006e5780639c28143014610222578063a9059cbb1461022b578063ba7c8acd1461023e578063dd62ed3e14610251578063f2fde38b14610289575f5ffd5b8063715018a6146101ee5780637e36320b146101f65780638da5cb5b146101ff57806395d89b411461021a575f5ffd5b806323b872dd116100e457806323b872dd14610187578063313ce5671461019a57806340c10f19146101a95780634fe15335146101be57806370a08231146101c6575f5ffd5b806303822d3b1461011557806306fdde0314610147578063095ea7b31461015c57806318160ddd1461017f575b5f5ffd5b6101346101233660046108bc565b60086020525f908152604090205481565b6040519081526020015b60405180910390f35b61014f61029c565b60405161013e91906108dc565b61016f61016a366004610911565b61032c565b604051901515815260200161013e565b600254610134565b61016f610195366004610939565b610345565b6040516012815260200161013e565b6101bc6101b7366004610911565b610368565b005b61013461037e565b6101346101d43660046108bc565b6001600160a01b03165f9081526020819052604090205490565b6101bc610428565b61013460075481565b6005546040516001600160a01b03909116815260200161013e565b61014f61043b565b61013460065481565b61016f610239366004610911565b61044a565b6101bc61024c366004610973565b610457565b61013461025f366004610993565b6001600160a01b039182165f90815260016020908152604080832093909416825291909152205490565b6101bc6102973660046108bc565b6104cf565b6060600380546102ab906109c4565b80601f01602080910402602001604051908101604052809291908181526020018280546102d7906109c4565b80156103225780601f106102f957610100808354040283529160200191610322565b820191905f5260205f20905b81548152906001019060200180831161030557829003601f168201915b5050505050905090565b5f3361033981858561050c565b60019150505b92915050565b5f3361035285828561051e565b61035d85858561059a565b506001949350505050565b6103706105f7565b61037a8282610624565b5050565b600754335f908152600860205260408120549091829161039e91906109fc565b9050804210156103c957604051630854f3dd60e41b8152600481018290526024015b60405180910390fd5b600654335f8181526008602052604090204290559092506103ea9083610624565b6040805183815242602082015233917fa19a7d2b5bf6a987a66e0eac8a6eb2dbd34ae6a43285849af788b224268ec022910160405180910390a25090565b6104306105f7565b6104395f610658565b565b6060600480546102ab906109c4565b5f3361033981858561059a565b61045f6105f7565b81158061046a575080155b15610488576040516306b7c75960e31b815260040160405180910390fd5b6006829055600781905560408051838152602081018390527f461fcb6726eb80f322d61d208345b1a89fdbec2555465f722a415408cabba8cb910160405180910390a15050565b6104d76105f7565b6001600160a01b03811661050057604051631e4fbdf760e01b81525f60048201526024016103c0565b61050981610658565b50565b61051983838360016106a9565b505050565b6001600160a01b038381165f908152600160209081526040808320938616835292905220545f19811015610594578181101561058657604051637dc7a0d960e11b81526001600160a01b038416600482015260248101829052604481018390526064016103c0565b61059484848484035f6106a9565b50505050565b6001600160a01b0383166105c357604051634b637e8f60e11b81525f60048201526024016103c0565b6001600160a01b0382166105ec5760405163ec442f0560e01b81525f60048201526024016103c0565b61051983838361077b565b6005546001600160a01b031633146104395760405163118cdaa760e01b81523360048201526024016103c0565b6001600160a01b03821661064d5760405163ec442f0560e01b81525f60048201526024016103c0565b61037a5f838361077b565b600580546001600160a01b038381166001600160a01b0319831681179093556040519116919082907f8be0079c531659141344cd1fd0a4f28419497f9722a3daafe3b4186f6b6457e0905f90a35050565b6001600160a01b0384166106d25760405163e602df0560e01b81525f60048201526024016103c0565b6001600160a01b0383166106fb57604051634a1406b160e11b81525f60048201526024016103c0565b6001600160a01b038085165f908152600160209081526040808320938716835292905220829055801561059457826001600160a01b0316846001600160a01b03167f8c5be1e5ebec7d5bd14f71427d1e84f3dd0314c0f7b2291e5b200ac8c7c3b9258460405161076d91815260200190565b60405180910390a350505050565b6001600160a01b0383166107a5578060025f82825461079a91906109fc565b909155506108159050565b6001600160a01b0383165f90815260208190526040902054818110156107f75760405163391434e360e21b81526001600160a01b038516600482015260248101829052604481018390526064016103c0565b6001600160a01b0384165f9081526020819052604090209082900390555b6001600160a01b0382166108315760028054829003905561084f565b6001600160a01b0382165f9081526020819052604090208054820190555b816001600160a01b0316836001600160a01b03167fddf252ad1be2c89b69c2b068fc378daa952ba7f163c4a11628f55a4df523b3ef8360405161089491815260200190565b60405180910390a3505050565b80356001600160a01b03811681146108b7575f5ffd5b919050565b5f602082840312156108cc575f5ffd5b6108d5826108a1565b9392505050565b602081525f82518060208401528060208501604085015e5f604082850101526040601f19601f83011684010191505092915050565b5f5f60408385031215610922575f5ffd5b61092b836108a1565b946020939093013593505050565b5f5f5f6060848603121561094b575f5ffd5b610954846108a1565b9250610962602085016108a1565b929592945050506040919091013590565b5f5f60408385031215610984575f5ffd5b50508035926020909101359150565b5f5f604083850312156109a4575f5ffd5b6109ad836108a1565b91506109bb602084016108a1565b90509250929050565b600181811c908216806109d857607f821691505b6020821081036109f657634e487b7160e01b5f52602260045260245ffd5b50919050565b8082018082111561033f57634e487b7160e01b5f52601160045260245ffdfea26469706673582212202754e8af2d2ff8971c18782415bf7d6489234b3f589678fc2f6737f571cd8a0164736f6c634300081c0033",
  "linkReferences": {},
  "deployedLinkReferences": {}
}