{
  "_format": "hh-sol-artifact-1",
  "contractName": "ConvictionVoting",
  "sourceName": "src/ConvictionVoting.sol",
  "abi": [
    {
      "inputs": [
        {
          "internalType": "address",
          "name": "token_",
          "type": "address"
        }
      ],
      "stateMutability": "nonpayable",
      "type": "constructor"
    },
    {
      "inputs": [],
      "name": "AlreadyExecuted",
      "type": "error"
    },
    {
      "inputs": [],
      "name": "Cancelled",
      "type": "error"
    },
    {
      "inputs": [],
      "name": "EnforcedPause",
      "type": "error"
    },
    {
      "inputs": [],
      "name": "ExpectedPause",
      "type": "error"
    },
    {
      "inputs": [],
      "name": "InsufficientConviction",
      "type": "error"
    },
    {
      "inputs": [],
      "name": "InsufficientFunds",
      "type": "error"
    },
    {
      "inputs": [],
      "name": "InvalidBeneficiary",
      "type": "error"
    },
    {
      "inputs": [],
      "name": "InvalidMetadata",
      "type": "error"
    },
    {
      "inputs": [],
      "name": "InvalidProposal",
      "type": "error"
    },
    {
      "inputs": [
        {
          "internalType": "address",
          "name": "owner",
          "type": "address"
        }
      ],
      "name": "OwnableInvalidOwner",
      "type": "error"
    },
    {
      "inputs": [
        {
          "internalType": "address",
          "name": "account",
          "type": "address"
        }
      ],
      "name": "OwnableUnauthorizedAccount",
      "type": "error"
    },
    {
      "inputs": [],
      "name": "ReentrancyGuardReentrantCall",
      "type": "error"
    },
    {
      "inputs": [],
      "name": "VotingPeriodNotElapsed",
      "type": "error"
    },
    {
      "inputs": [],
      "name": "ZeroAmount",
      "type": "error"
    },
    {
      "anonymous": false,
      "inputs": [
        {
          "indexed": true,
          "internalType": "address",
          "name": "previousOwner",
          "type": "address"
        },
        {
          "indexed": true,
          "internalType": "address",
          "name": "newOwner",
          "type": "address"
        }
      ],
      "name": "OwnershipTransferred",
      "type": "event"
    },
    {
      "anonymous": false,
      "inputs": [
        {
          "indexed": false,
          "internalType": "address",
          "name": "account",
          "type": "address"
        }
      ],
      "name": "Paused",
      "type": "event"
    },
    {
      "anonymous": false,
      "inputs": [
        {
          "indexed": true,
          "internalType": "uint256",
          "name": "id",
          "type": "uint256"
        }
      ],
      "name": "ProposalCancelled",
      "type": "event"
    },
    {
      "anonymous": false,
      "inputs": [
        {
          "indexed": true,
          "internalType": "uint256",
          "name": "id",
          "type": "uint256"
        },
        {
          "indexed": true,
          "internalType": "address",
          "name": "proposer",
          "type": "address"
        },
        {
          "indexed": false,
          "internalType": "string",
          "name": "metadataURI",
          "type": "string"
        },
        {
          "indexed": false,
          "internalType": "uint256",
          "name": "requestedAmount",
          "type": "uint256"
        },
        {
          "indexed": false,
          "internalType": "address",
          "name": "beneficiary",
          "type": "address"
        }
      ],
      "name": "ProposalCreated",
      "type": "event"
    },
    {
      "anonymous": false,
      "inputs": [
        {
          "indexed": true,
          "internalType": "uint256",
          "name": "id",
          "type": "uint256"
        },
        {
          "indexed": true,
          "internalType": "address",
          "name": "beneficiary",
          "type": "address"
        },
        {
          "indexed": false,
          "internalType": "uint256",
          "name": "amount",
          "type": "uint256"
        }
      ],
      "name": "ProposalExecuted",
      "type": "event"
    },
    {
      "anonymous": false,
      "inputs": [
        {
          "indexed": true,
          "internalType": "uint256",
          "name": "proposalId",
          "type": "uint256"
        },
        {
          "indexed": true,
          "internalType": "address",
          "name": "voter",
          "type": "address"
        },
        {
          "indexed": false,
          "internalType": "uint256",
          "name": "previousStake",
          "type": "uint256"
        },
        {
          "indexed": false,
          "internalType": "uint256",
          "name": "newStake",
          "type": "uint256"
        },
        {
          "indexed": false,
          "internalType": "uint256",
          "name": "currentConviction",
          "type": "uint256"
        }
      ],
      "name": "StakeChanged",
      "type": "event"
    },
    {
      "anonymous": false,
      "inputs": [
        {
          "indexed": true,
          "internalType": "address",
          "name": "funder",
          "type": "address"
        },
        {
          "indexed": false,
          "internalType": "uint256",
          "name": "amount",
          "type": "uint256"
        },
        {
          "indexed": false,
          "internalType": "uint256",
          "name": "newBalance",
          "type": "uint256"
        }
      ],
      "name": "TreasuryFunded",
      "type": "event"
    },
    {
      "anonymous": false,
      "inputs": [
        {
          "indexed": false,
          "internalType": "address",
          "name": "account",
          "type": "address"
        }
      ],
      "name": "Unpaused",
      "type": "event"
    },
    {
      "inputs": [],
      "name": "BASE_THRESHOLD_BPS",
      "outputs": [
        {
          "internalType": "uint256",
          "name": "",
          "type": "uint256"
        }
      ],
      "stateMutability": "view",
      "type": "function"
    },
    {
      "inputs": [],
      "name": "MIN_VOTING_PERIOD",
      "outputs": [
        {
          "internalType": "uint256",
          "name": "",
          "type": "uint256"
        }
      ],
      "stateMutability": "view",
      "type": "function"
    },
    {
      "inputs": [
        {
          "internalType": "uint256",
          "name": "proposalId",
          "type": "uint256"
        }
      ],
      "name": "cancelProposal",
      "outputs": [],
      "stateMutability": "nonpayable",
      "type": "function"
    },
    {
      "inputs": [
        {
          "internalType": "uint256",
          "name": "proposalId",
          "type": "uint256"
        }
      ],
      "name": "convictionThreshold",
      "outputs": [
        {
          "internalType": "uint256",
          "name": "",
          "type": "uint256"
        }
      ],
      "stateMutability": "view",
      "type": "function"
    },
    {
      "inputs": [
        {
          "internalType": "string",
          "name": "metadataURI",
          "type": "string"
        },
        {
          "internalType": "uint256",
          "name": "requestedAmount",
          "type": "uint256"
        },
        {
          "internalType": "address payable",
          "name": "beneficiary",
          "type": "address"
        }
      ],
      "name": "createProposal",
      "outputs": [
        {
          "internalType": "uint256",
          "name": "proposalId",
          "type": "uint256"
        }
      ],
      "stateMutability": "nonpayable",
      "type": "function"
    },
    {
      "inputs": [],
      "name": "deposit",
      "outputs": [],
      "stateMutability": "payable",
      "type": "function"
    },
    {
      "inputs": [
        {
          "internalType": "uint256",
          "name": "proposalId",
          "type": "uint256"
        }
      ],
      "name": "executeProposal",
      "outputs": [],
      "stateMutability": "nonpayable",
      "type": "function"
    },
    {
      "inputs": [],
      "name": "fundBalance",
      "outputs": [
        {
          "internalType": "uint256",
          "name": "",
          "type": "uint256"
        }
      ],
      "stateMutability": "view",
      "type": "function"
    },
    {
      "inputs": [
        {
          "internalType": "uint256",
          "name": "proposalId",
          "type": "uint256"
        }
      ],
      "name": "getCurrentConviction",
      "outputs": [
        {
          "internalType": "uint256",
          "name": "",
          "type": "uint256"
        }
      ],
      "stateMutability": "view",
      "type": "function"
    },
    {
      "inputs": [],
      "name": "governanceToken",
      "outputs": [
        {
          "internalType": "contract IERC20",
          "name": "",
          "type": "address"
        }
      ],
      "stateMutability": "view",
      "type": "function"
    },
    {
      "inputs": [],
      "name": "owner",
      "outputs": [
        {
          "internalType": "address",
          "name": "",
          "type": "address"
        }
      ],
      "stateMutability": "view",
      "type": "function"
    },
    {
      "inputs": [],
      "name": "pause",
      "outputs": [],
      "stateMutability": "nonpayable",
      "type": "function"
    },
    {
      "inputs": [],
      "name": "paused",
      "outputs": [
        {
          "internalType": "bool",
          "name": "",
          "type": "bool"
        }
      ],
      "stateMutability": "view",
      "type": "function"
    },
    {
      "inputs": [],
      "name": "proposalCount",
      "outputs": [
        {
          "internalType": "uint256",
          "name": "",
          "type": "uint256"
        }
      ],
      "stateMutability": "view",
      "type": "function"
    },
    {
      "inputs": [
        {
          "internalType": "uint256",
          "name": "",
          "type": "uint256"
        }
      ],
      "name": "proposals",
      "outputs": [
        {
          "internalType": "uint256",
          "name": "id",
          "type": "uint256"
        },
        {
          "internalType": "address",
          "name": "proposer",
          "type": "address"
        },
        {
          "internalType": "string",
          "name": "metadataURI",
          "type": "string"
        },
        {
          "internalType": "uint256",
          "name": "requestedAmount",
          "type": "uint256"
        },
        {
          "internalType": "address payable",
          "name": "beneficiary",
          "type": "address"
        },
        {
          "internalType": "uint256",
          "name": "conviction",
          "type": "uint256"
        },
        {
          "internalType": "uint256",
          "name": "totalStaked",
          "type": "uint256"
        },
        {
          "internalType": "uint256",
          "name": "lastUpdatedBlock",
          "type": "uint256"
        },
        {
          "internalType": "bool",
          "name": "executed",
          "type": "bool"
        },
        {
          "internalType": "bool",
          "name": "cancelled",
          "type": "bool"
        },
        {
          "internalType": "uint256",
          "name": "createdAt",
          "type": "uint256"
        }
      ],
      "stateMutability": "view",
      "type": "function"
    },
    {
      "inputs": [],
      "name": "renounceOwnership",
      "outputs": [],
      "stateMutability": "nonpayable",
      "type": "function"
    },
    {
      "inputs": [
        {
          "internalType": "uint256",
          "name": "proposalId",
          "type": "uint256"
        },
        {
          "internalType": "uint256",
          "name": "amount",
          "type": "uint256"
        }
      ],
      "name": "stakeOnProposal",
      "outputs": [],
      "stateMutability": "nonpayable",
      "type": "function"
    },
    {
      "inputs": [
        {
          "internalType": "uint256",
          "name": "",
          "type": "uint256"
        },
        {
          "internalType": "address",
          "name": "",
          "type": "address"
        }
      ],
      "name": "stakes",
      "outputs": [
        {
          "internalType": "uint256",
          "name": "",
          "type": "uint256"
        }
      ],
      "stateMutability": "view",
      "type": "function"
    },
    {
      "inputs": [
        {
          "internalType": "address",
          "name": "newOwner",
          "type": "address"
        }
      ],
      "name": "transferOwnership",
      "outputs": [],
      "stateMutability": "nonpayable",
      "type": "function"
    },
    {
      "inputs": [],
      "name": "unpause",
      "outputs": [],
      "stateMutability": "nonpayable",
      "type": "function"
    },
    {
      "inputs": [
        {
          "internalType": "uint256",
          "name": "proposalId",
          "type": "uint256"
        },
        {
          "internalType": "uint256",
          "name": "amount",
          "type": "uint256"
        }
      ],
      "name": "withdrawStake",
      "outputs": [],
      "stateMutability": "nonpayable",
      "type": "function"
    },
    {
      "stateMutability": "payable",
      "type": "receive"
    }
  ],
  "bytecode": "0x60a060405234801561000f575f5ffd5b506040516117a33803806117a383398101604081905261002e91610108565b338061005357604051631e4fbdf760e01b81525f600482015260240160405180910390fd5b61005c816100b9565b5060017f9b779b17422d0df92223018b32b4d1fa46e071723d6817e2486d003becc55f00556001600160a01b0381166100a857604051631559b7d760e21b815260040160405180910390fd5b6001600160a01b0316608052610135565b5f80546001600160a01b038381166001600160a01b0319831681178455604051919092169283917f8be0079c531659141344cd1fd0a4f28419497f9722a3daafe3b4186f6b6457e09190a35050565b5f60208284031215610118575f5ffd5b81516001600160a01b038116811461012e575f5ffd5b9392505050565b6080516116416101625f395f818161039c0152818161058a01528181610ce90152610e5e01526116415ff3fe608060405260043610610129575f3560e01c80638456cb59116100a8578063e0a8f6f51161006d578063e0a8f6f514610319578063f1fdf46914610338578063f2fde38b14610357578063f4af2b5514610376578063f96dae0a1461038b578063ff3ac2f7146103be575f5ffd5b80638456cb59146102825780638da5cb5b14610296578063a9a3bba4146102c6578063d0e30db0146102fc578063da35c66414610304575f5ffd5b80633c067945116100ee5780633c067945146101fe5780633f4ba83a146102135780635c975abb146102275780636ac1e01f1461024f578063715018a61461026e575f5ffd5b8063013cf08b1461013e578063089864eb1461017d5780630d61b519146101aa578063215809ca146101c957806331aaa8ce146101df575f5ffd5b3661013a5761013833346103dd565b005b5f5ffd5b348015610149575f5ffd5b5061015d6101583660046111cb565b610464565b6040516101749b9a999897969594939291906111e2565b60405180910390f35b348015610188575f5ffd5b5061019c6101973660046111cb565b610559565b604051908152602001610174565b3480156101b5575f5ffd5b506101386101c43660046111cb565b610690565b3480156101d4575f5ffd5b5061019c6203f48081565b3480156101ea575f5ffd5b5061019c6101f93660046111cb565b610809565b348015610209575f5ffd5b5061019c60025481565b34801561021e575f5ffd5b50610138610871565b348015610232575f5ffd5b505f54600160a01b900460ff166040519015158152602001610174565b34801561025a575f5ffd5b5061019c610269366004611295565b610883565b348015610279575f5ffd5b50610138610abe565b34801561028d575f5ffd5b50610138610acf565b3480156102a1575f5ffd5b505f546001600160a01b03165b6040516001600160a01b039091168152602001610174565b3480156102d1575f5ffd5b5061019c6102e036600461131c565b600460209081525f928352604080842090915290825290205481565b610138610adf565b34801561030f575f5ffd5b5061019c60015481565b348015610324575f5ffd5b506101386103333660046111cb565b610ae9565b348015610343575f5ffd5b5061013861035236600461134a565b610bed565b348015610362575f5ffd5b5061013861037136600461136a565b610dc5565b348015610381575f5ffd5b5061019c6101f481565b348015610396575f5ffd5b506102ae7f000000000000000000000000000000000000000000000000000000000000000081565b3480156103c9575f5ffd5b506101386103d836600461134a565b610dff565b805f036103fd57604051631f2a200560e01b815260040160405180910390fd5b8060025f82825461040e91906113a0565b90915550506002546040516001600160a01b038416917fc368570c718ead78e572d31d3c0a44869e1623a1355733b857032ded01322d839161045891858252602082015260400190565b60405180910390a25050565b60036020525f908152604090208054600182015460028301805492936001600160a01b0390921692610495906113b9565b80601f01602080910402602001604051908101604052809291908181526020018280546104c1906113b9565b801561050c5780601f106104e35761010080835404028352916020019161050c565b820191905f5260205f20905b8154815290600101906020018083116104ef57829003601f168201915b50505050600383015460048401546005850154600686015460078701546008880154600990980154969794966001600160a01b0390941695509193909260ff80831692610100900416908b565b5f8181526003602052604081208054820361058757604051631dc0650160e31b815260040160405180910390fd5b5f7f00000000000000000000000000000000000000000000000000000000000000006001600160a01b03166318160ddd6040518163ffffffff1660e01b8152600401602060405180830381865afa1580156105e4573d5f5f3e3d5ffd5b505050506040513d601f19601f8201168201806040525081019061060891906113f1565b90505f61271061061a6101f484611408565b610624919061141f565b90505f6002545f1461063857600254610642565b670de0b6b3a76400005b90505f8185600301546127106106589190611408565b610662919061141f565b90506127106106718285611408565b61067b919061141f565b61068590846113a0565b979650505050505050565b610698610f7f565b6106a0610f9a565b5f6106aa82610fc4565b90506203f48081600901546106bf91906113a0565b4210156106df57604051631055b84760e21b815260040160405180910390fd5b6106e881611049565b6106f182610559565b81600501541015610715576040516340a2e49760e11b815260040160405180910390fd5b8060030154600254101561073c5760405163356680b760e01b815260040160405180910390fd5b60088101805460ff191660011790556003810154600280545f9061076190849061143e565b9091555050600481015460038201546040516001600160a01b039092169181156108fc0291905f818181858888f193505050501580156107a3573d5f5f3e3d5ffd5b50600481015460038201546040519081526001600160a01b039091169083907f3b7c90df35b419337cff0919fe91849006607bb66c4373623f06f9d48c1ebb989060200160405180910390a35061080660015f5160206115ec5f395f51905f5255565b50565b5f8181526003602052604081208054820361083757604051631dc0650160e31b815260040160405180910390fd5b5f816007015443610848919061143e565b905080826006015461085a9190611408565b826005015461086991906113a0565b949350505050565b610879611062565b61088161108e565b565b5f61088c610f9a565b5f8490036108ad57604051635e765b2560e11b815260040160405180910390fd5b6001600160a01b0382166108d457604051631559b7d760e21b815260040160405180910390fd5b825f036108f457604051631f2a200560e01b815260040160405180910390fd5b60015f815461090290611451565b9190508190559050604051806101600160405280828152602001336001600160a01b0316815260200186868080601f0160208091040260200160405190810160405280939291908181526020018383808284375f92018290525093855250505060208083018790526001600160a01b0386811660408086019190915260608501849052608085018490524360a086015260c0850184905260e085018490524261010090950194909452858352600382529183902084518155908401516001820180546001600160a01b03191691909316179091559082015160028201906109e990826114c9565b506060820151600382015560808201516004820180546001600160a01b0319166001600160a01b0390921691909117905560a0820151600582015560c0820151600682015560e082015160078201556101008083015160088301805461012086015161ffff1990911692151561ff0019169290921791151590920217905561014090910151600990910155604051339082907f681515850d74456af78685d0714fbe16c2aae31c969f57374add5e8340018d2190610aae908990899089908990611584565b60405180910390a3949350505050565b610ac6611062565b6108815f6110e2565b610ad7611062565b610881611131565b61088133346103dd565b5f8181526003602052604081208054909103610b1857604051631dc0650160e31b815260040160405180910390fd5b60018101546001600160a01b0316331480610b4b575033610b405f546001600160a01b031690565b6001600160a01b0316145b610b885760405162461bcd60e51b81526020600482015260096024820152682337b93134b23232b760b91b60448201526064015b60405180910390fd5b600881015460ff1615610bae57604051630dc1019760e01b815260040160405180910390fd5b60088101805461ff00191661010017905560405182907f416e669c63d9a3a5e36ee7cc7e2104b8db28ccd286aa18966e98fa230c73b08c905f90a25050565b610bf5610f7f565b805f03610c1557604051631f2a200560e01b815260040160405180910390fd5b5f610c1f83610fc4565b5f84815260046020908152604080832033845290915290205490915082811015610c805760405162461bcd60e51b8152602060048201526012602482015271496e73756666696369656e74207374616b6560701b6044820152606401610b7f565b610c8982611049565b5f610c94848361143e565b5f86815260046020908152604080832033845290915281208290556006850180549293508692909190610cc890849061143e565b909155505060405163a9059cbb60e01b8152336004820152602481018590527f00000000000000000000000000000000000000000000000000000000000000006001600160a01b03169063a9059cbb906044016020604051808303815f875af1158015610d37573d5f5f3e3d5ffd5b505050506040513d601f19601f82011682018060405250810190610d5b91906115cc565b506005830154604080518481526020810184905290810191909152339086907f22988c537974cd027476f884ead2590a2fe7e5749e749815db7b32e696e33880906060015b60405180910390a3505050610dc160015f5160206115ec5f395f51905f5255565b5050565b610dcd611062565b6001600160a01b038116610df657604051631e4fbdf760e01b81525f6004820152602401610b7f565b610806816110e2565b610e07610f7f565b610e0f610f9a565b805f03610e2f57604051631f2a200560e01b815260040160405180910390fd5b5f610e3983610fc4565b6040516323b872dd60e01b8152336004820152306024820152604481018490529091507f00000000000000000000000000000000000000000000000000000000000000006001600160a01b0316906323b872dd906064016020604051808303815f875af1158015610eac573d5f5f3e3d5ffd5b505050506040513d601f19601f82011682018060405250810190610ed091906115cc565b50610eda81611049565b5f83815260046020908152604080832033845290915281205490610efe84836113a0565b5f86815260046020908152604080832033845290915281208290556006850180549293508692909190610f329084906113a0565b90915550506005830154604080518481526020810184905290810191909152339086907f22988c537974cd027476f884ead2590a2fe7e5749e749815db7b32e696e3388090606001610da0565b610f87611173565b60025f5160206115ec5f395f51905f5255565b5f54600160a01b900460ff16156108815760405163d93c066560e01b815260040160405180910390fd5b5f8181526003602052604081208054909103610ff357604051631dc0650160e31b815260040160405180910390fd5b600881015460ff161561101957604051630dc1019760e01b815260040160405180910390fd5b6008810154610100900460ff1615611044576040516318ee562160e21b815260040160405180910390fd5b919050565b805461105490610809565b600582015543600790910155565b5f546001600160a01b031633146108815760405163118cdaa760e01b8152336004820152602401610b7f565b6110966111a2565b5f805460ff60a01b191690557f5db9ee0a495bf2e6ff9c91a7834c1ba4fdd244a5e8aa4e537bd38aeae4b073aa335b6040516001600160a01b03909116815260200160405180910390a1565b5f80546001600160a01b038381166001600160a01b0319831681178455604051919092169283917f8be0079c531659141344cd1fd0a4f28419497f9722a3daafe3b4186f6b6457e09190a35050565b611139610f9a565b5f805460ff60a01b1916600160a01b1790557f62e78cea01bee320cd4e420270b5ea74000d11b0c9f74754ebdbfc544b05a2586110c53390565b5f5160206115ec5f395f51905f525460020361088157604051633ee5aeb560e01b815260040160405180910390fd5b5f54600160a01b900460ff1661088157604051638dfc202b60e01b815260040160405180910390fd5b5f602082840312156111db575f5ffd5b5035919050565b8b815260018060a01b038b16602082015261016060408201525f8a51806101608401528060208d0161018085015e5f6101808285010152610180601f19601f830116840101915050896060830152611245608083018a6001600160a01b03169052565b8760a08301528660c08301528560e083015261126661010083018615159052565b92151561012082015261014001529998505050505050505050565b6001600160a01b0381168114610806575f5ffd5b5f5f5f5f606085870312156112a8575f5ffd5b843567ffffffffffffffff8111156112be575f5ffd5b8501601f810187136112ce575f5ffd5b803567ffffffffffffffff8111156112e4575f5ffd5b8760208284010111156112f5575f5ffd5b6020918201955093508501359150604085013561131181611281565b939692955090935050565b5f5f6040838503121561132d575f5ffd5b82359150602083013561133f81611281565b809150509250929050565b5f5f6040838503121561135b575f5ffd5b50508035926020909101359150565b5f6020828403121561137a575f5ffd5b813561138581611281565b9392505050565b634e487b7160e01b5f52601160045260245ffd5b808201808211156113b3576113b361138c565b92915050565b600181811c908216806113cd57607f821691505b6020821081036113eb57634e487b7160e01b5f52602260045260245ffd5b50919050565b5f60208284031215611401575f5ffd5b5051919050565b80820281158282048414176113b3576113b361138c565b5f8261143957634e487b7160e01b5f52601260045260245ffd5b500490565b818103818111156113b3576113b361138c565b5f600182016114625761146261138c565b5060010190565b634e487b7160e01b5f52604160045260245ffd5b601f8211156114c457805f5260205f20601f840160051c810160208510156114a25750805b601f840160051c820191505b818110156114c1575f81556001016114ae565b50505b505050565b815167ffffffffffffffff8111156114e3576114e3611469565b6114f7816114f184546113b9565b8461147d565b6020601f821160018114611529575f83156115125750848201515b5f19600385901b1c1916600184901b1784556114c1565b5f84815260208120601f198516915b828110156115585787850151825560209485019460019092019101611538565b508482101561157557868401515f19600387901b60f8161c191681555b50505050600190811b01905550565b60608152836060820152838560808301375f608085830181019190915260208201939093526001600160a01b03919091166040820152601f909201601f191690910101919050565b5f602082840312156115dc575f5ffd5b81518015158114611385575f5ffdfe9b779b17422d0df92223018b32b4d1fa46e071723d6817e2486d003becc55f00a26469706673582212202962f0f2c7765a53657758f05c38b0658fedbc21d16212009130ef1e2ac05ef464736f6c634300081c0033",
  "linkReferences": {},
  "deployedLinkReferences": {}
}