{
  "_format": "hh-sol-artifact-1",
  "contractName": "DePINRegistry",
  "sourceName": "src/DePINRegistry.sol",
  "abi": [
    {
      "inputs": [
        {
          "internalType": "address",
          "name": "rewardToken_",
          "type": "address"
        }
      ],
      "stateMutability": "nonpayable",
      "type": "constructor"
    },
    {
      "inputs": [],
      "name": "AccessControlBadConfirmation",
      "type": "error"
    },
    {
      "inputs": [
        {
          "internalType": "address",
          "name": "account",
          "type": "address"
        },
        {
          "internalType": "bytes32",
          "name": "neededRole",
          "type": "bytes32"
        }
      ],
      "name": "AccessControlUnauthorizedAccount",
      "type": "error"
    },
    {
      "inputs": [],
      "name": "AlreadyVerified",
      "type": "error"
    },
    {
      "inputs": [],
      "name": "CannotClaim",
      "type": "error"
    },
    {
      "inputs": [],
      "name": "InvalidQuality",
      "type": "error"
    },
    {
      "inputs": [],
      "name": "InvalidSubmission",
      "type": "error"
    },
    {
      "inputs": [],
      "name": "InvalidURI",
      "type": "error"
    },
    {
      "anonymous": false,
      "inputs": [
        {
          "indexed": true,
          "internalType": "enum DePINRegistry.DataType",
          "name": "dataType",
          "type": "uint8"
        },
        {
          "indexed": false,
          "internalType": "uint256",
          "name": "reward",
          "type": "uint256"
        }
      ],
      "name": "BaseRewardUpdated",
      "type": "event"
    },
    {
      "anonymous": false,
      "inputs": [
        {
          "indexed": true,
          "internalType": "uint256",
          "name": "id",
          "type": "uint256"
        },
        {
          "indexed": true,
          "internalType": "address",
          "name": "contributor",
          "type": "address"
        },
        {
          "indexed": false,
          "internalType": "uint256",
          "name": "reward",
          "type": "uint256"
        }
      ],
      "name": "Claimed",
      "type": "event"
    },
    {
      "anonymous": false,
      "inputs": [
        {
          "indexed": true,
          "internalType": "bytes32",
          "name": "role",
          "type": "bytes32"
        },
        {
          "indexed": true,
          "internalType": "bytes32",
          "name": "previousAdminRole",
          "type": "bytes32"
        },
        {
          "indexed": true,
          "internalType": "bytes32",
          "name": "newAdminRole",
          "type": "bytes32"
        }
      ],
      "name": "RoleAdminChanged",
      "type": "event"
    },
    {
      "anonymous": false,
      "inputs": [
        {
          "indexed": true,
          "internalType": "bytes32",
          "name": "role",
          "type": "bytes32"
        },
        {
          "indexed": true,
          "internalType": "address",
          "name": "account",
          "type": "address"
        },
        {
          "indexed": true,
          "internalType": "address",
          "name": "sender",
          "type": "address"
        }
      ],
      "name": "RoleGranted",
      "type": "event"
    },
    {
      "anonymous": false,
      "inputs": [
        {
          "indexed": true,
          "internalType": "bytes32",
          "name": "role",
          "type": "bytes32"
        },
        {
          "indexed": true,
          "internalType": "address",
          "name": "account",
          "type": "address"
        },
        {
          "indexed": true,
          "internalType": "address",
          "name": "sender",
          "type": "address"
        }
      ],
      "name": "RoleRevoked",
      "type": "event"
    },
    {
      "anonymous": false,
      "inputs": [
        {
          "indexed": true,
          "internalType": "uint256",
          "name": "id",
          "type": "uint256"
        },
        {
          "indexed": true,
          "internalType": "address",
          "name": "contributor",
          "type": "address"
        },
        {
          "indexed": false,
          "internalType": "enum DePINRegistry.DataType",
          "name": "dataType",
          "type": "uint8"
        }
      ],
      "name": "Submitted",
      "type": "event"
    },
    {
      "anonymous": false,
      "inputs": [
        {
          "indexed": true,
          "internalType": "uint256",
          "name": "id",
          "type": "uint256"
        },
        {
          "indexed": false,
          "internalType": "uint256",
          "name": "quality",
          "type": "uint256"
        },
        {
          "indexed": false,
          "internalType": "uint256",
          "name": "reward",
          "type": "uint256"
        }
      ],
      "name": "Verified",
      "type": "event"
    },
    {
      "inputs": [],
      "name": "DEFAULT_ADMIN_ROLE",
      "outputs": [
        {
          "internalType": "bytes32",
          "name": "",
          "type": "bytes32"
        }
      ],
      "stateMutability": "view",
      "type": "function"
    },
    {
      "inputs": [],
      "name": "ORACLE_ROLE",
      "outputs": [
        {
          "internalType": "bytes32",
          "name": "",
          "type": "bytes32"
        }
      ],
      "stateMutability": "view",
      "type": "function"
    },
    {
      "inputs": [
        {
          "internalType": "enum DePINRegistry.DataType",
          "name": "",
          "type": "uint8"
        }
      ],
      "name": "baseReward",
      "outputs": [
        {
          "internalType": "uint256",
          "name": "",
          "type": "uint256"
        }
      ],
      "stateMutability": "view",
      "type": "function"
    },
    {
      "inputs": [
        {
          "internalType": "uint256",
          "name": "submissionId",
          "type": "uint256"
        }
      ],
      "name": "claim",
      "outputs": [],
      "stateMutability": "nonpayable",
      "type": "function"
    },
    {
      "inputs": [],
      "name": "count",
      "outputs": [
        {
          "internalType": "uint256",
          "name": "",
          "type": "uint256"
        }
      ],
      "stateMutability": "view",
      "type": "function"
    },
    {
      "inputs": [
        {
          "internalType": "bytes32",
          "name": "role",
          "type": "bytes32"
        }
      ],
      "name": "getRoleAdmin",
      "outputs": [
        {
          "internalType": "bytes32",
          "name": "",
          "type": "bytes32"
        }
      ],
      "stateMutability": "view",
      "type": "function"
    },
    {
      "inputs": [
        {
          "internalType": "bytes32",
          "name": "role",
          "type": "bytes32"
        },
        {
          "internalType": "address",
          "name": "account",
          "type": "address"
        }
      ],
      "name": "grantRole",
      "outputs": [],
      "stateMutability": "nonpayable",
      "type": "function"
    },
    {
      "inputs": [
        {
          "internalType": "bytes32",
          "name": "role",
          "type": "bytes32"
        },
        {
          "internalType": "address",
          "name": "account",
          "type": "address"
        }
      ],
      "name": "hasRole",
      "outputs": [
        {
          "internalType": "bool",
          "name": "",
          "type": "bool"
        }
      ],
      "stateMutability": "view",
      "type": "function"
    },
    {
      "inputs": [
        {
          "internalType": "bytes32",
          "name": "role",
          "type": "bytes32"
        },
        {
          "internalType": "address",
          "name": "callerConfirmation",
          "type": "address"
        }
      ],
      "name": "renounceRole",
      "outputs": [],
      "stateMutability": "nonpayable",
      "type": "function"
    },
    {
      "inputs": [
        {
          "internalType": "bytes32",
          "name": "role",
          "type": "bytes32"
        },
        {
          "internalType": "address",
          "name": "account",
          "type": "address"
        }
      ],
      "name": "revokeRole",
      "outputs": [],
      "stateMutability": "nonpayable",
      "type": "function"
    },
    {
      "inputs": [],
      "name": "rewardToken",
      "outputs": [
        {
          "internalType": "contract IERC20",
          "name": "",
          "type": "address"
        }
      ],
      "stateMutability": "view",
      "type": "function"
    },
    {
      "inputs": [
        {
          "internalType": "address",
          "name": "",
          "type": "address"
        }
      ],
      "name": "score",
      "outputs": [
        {
          "internalType": "uint256",
          "name": "",
          "type": "uint256"
        }
      ],
      "stateMutability": "view",
      "type": "function"
    },
    {
      "inputs": [
        {
          "internalType": "enum DePINRegistry.DataType",
          "name": "dataType",
          "type": "uint8"
        },
        {
          "internalType": "uint256",
          "name": "reward",
          "type": "uint256"
        }
      ],
      "name": "setBaseReward",
      "outputs": [],
      "stateMutability": "nonpayable",
      "type": "function"
    },
    {
      "inputs": [
        {
          "internalType": "uint256",
          "name": "",
          "type": "uint256"
        }
      ],
      "name": "submissions",
      "outputs": [
        {
          "internalType": "uint256",
          "name": "id",
          "type": "uint256"
        },
        {
          "internalType": "address",
          "name": "contributor",
          "type": "address"
        },
        {
          "internalType": "string",
          "name": "metadataURI",
          "type": "string"
        },
        {
          "internalType": "string",
          "name": "accessURI",
          "type": "string"
        },
        {
          "internalType": "enum DePINRegistry.DataType",
          "name": "dataType",
          "type": "uint8"
        },
        {
          "internalType": "uint256",
          "name": "reward",
          "type": "uint256"
        },
        {
          "internalType": "bool",
          "name": "verified",
          "type": "bool"
        },
        {
          "internalType": "bool",
          "name": "claimed",
          "type": "bool"
        },
        {
          "internalType": "uint256",
          "name": "submittedAt",
          "type": "uint256"
        },
        {
          "internalType": "uint256",
          "name": "quality",
          "type": "uint256"
        }
      ],
      "stateMutability": "view",
      "type": "function"
    },
    {
      "inputs": [
        {
          "internalType": "string",
          "name": "metadataURI",
          "type": "string"
        },
        {
          "internalType": "string",
          "name": "accessURI",
          "type": "string"
        },
        {
          "internalType": "enum DePINRegistry.DataType",
          "name": "dataType",
          "type": "uint8"
        }
      ],
      "name": "submit",
      "outputs": [
        {
          "internalType": "uint256",
          "name": "submissionId",
          "type": "uint256"
        }
      ],
      "stateMutability": "nonpayable",
      "type": "function"
    },
    {
      "inputs": [
        {
          "internalType": "bytes4",
          "name": "interfaceId",
          "type": "bytes4"
        }
      ],
      "name": "supportsInterface",
      "outputs": [
        {
          "internalType": "bool",
          "name": "",
          "type": "bool"
        }
      ],
      "stateMutability": "view",
      "type": "function"
    },
    {
      "inputs": [
        {
          "internalType": "address",
          "name": "account",
          "type": "address"
        }
      ],
      "name": "tier",
      "outputs": [
        {
          "internalType": "string",
          "name": "",
          "type": "string"
        }
      ],
      "stateMutability": "view",
      "type": "function"
    },
    {
      "inputs": [
        {
          "internalType": "uint256",
          "name": "submissionId",
          "type": "uint256"
        },
        {
          "internalType": "uint256",
          "name": "quality",
          "type": "uint256"
        }
      ],
      "name": "verify",
      "outputs": [],
      "stateMutability": "nonpayable",
      "type": "function"
    }
  ],
  "bytecode": "0x60a060405234801561000f575f5ffd5b5060405161148738038061148783398101604081905261002e9161024b565b6001600160a01b0381166100785760405162461bcd60e51b815260206004820152600d60248201526c24b73b30b634b2103a37b5b2b760991b604482015260640160405180910390fd5b6001600160a01b03811660805261008f5f336101a2565b506100ba7f68e79a7bf1e0bc45d0a330c573bc367f9cf464fd326078812f301165fbda4ef1336101a2565b505060046020819052678ac7230489e800007f17ef568e3e12ab5b9c7254a8d58478811de00f9e6eb34345acd53bf8fd09d3ec5567d02ab486cedc00007fabd6e7cb50984ff9c2f3e18a2660c3353dadf4e3291deeb275dae2cd1e44fe05556801158e460913d000007f91da3fd0782e51c6b3986e9e672fd566868e71f3dbc2d6c2cd6fbb3e361af2a755676f05b59d3b2000007f2e174c10e159ea99b867ce3205125c24a42d128804e4070ed6fcc8cc98166aa0555f52674563918244f400007f1a1e6821cde7d0159c0d293177871e09677b4e42307c7db3ba94f8648a5a050f55610278565b5f828152602081815260408083206001600160a01b038516845290915281205460ff16610242575f838152602081815260408083206001600160a01b03861684529091529020805460ff191660011790556101fa3390565b6001600160a01b0316826001600160a01b0316847f2f8788117e7eff1d82e926ec794901d17c78024a50270940304540a733656f0d60405160405180910390a4506001610245565b505f5b92915050565b5f6020828403121561025b575f5ffd5b81516001600160a01b0381168114610271575f5ffd5b9392505050565b6080516111f06102975f395f81816102ca015261050601526111f05ff3fe608060405234801561000f575f5ffd5b5060043610610111575f3560e01c8063535c34031161009e578063ad73349e1161006e578063ad73349e14610263578063c38662f11461028c578063cbfc0a3b1461029f578063d547741f146102b2578063f7c618c1146102c5575f5ffd5b8063535c34031461020b578063776f38431461022a57806391d1485414610249578063a217fddf1461025c575f5ffd5b80632785f8bb116100e45780632785f8bb1461019d5780632f2ff15d146101bd57806336568abe146101d2578063379607f5146101e557806341161b10146101f8575f5ffd5b806301ffc9a71461011557806306661abd1461013d57806307e2cea514610154578063248a9ca31461017b575b5f5ffd5b610128610123366004610d01565b610304565b60405190151581526020015b60405180910390f35b61014660015481565b604051908152602001610134565b6101467f68e79a7bf1e0bc45d0a330c573bc367f9cf464fd326078812f301165fbda4ef181565b610146610189366004610d2f565b5f9081526020819052604090206001015490565b6101b06101ab366004610d61565b61033a565b6040516101349190610da8565b6101d06101cb366004610dba565b6103ff565b005b6101d06101e0366004610dba565b610429565b6101d06101f3366004610d2f565b610461565b6101d0610206366004610de4565b6105bd565b610146610219366004610e12565b60046020525f908152604090205481565b610146610238366004610d61565b60036020525f908152604090205481565b610128610257366004610dba565b610748565b6101465f81565b610276610271366004610d2f565b610770565b6040516101349a99989796959493929190610e5f565b61014661029a366004610f1e565b6108df565b6101d06102ad366004610f9e565b610b0c565b6101d06102c0366004610dba565b610b97565b6102ec7f000000000000000000000000000000000000000000000000000000000000000081565b6040516001600160a01b039091168152602001610134565b5f6001600160e01b03198216637965db0b60e01b148061033457506301ffc9a760e01b6001600160e01b03198316145b92915050565b6001600160a01b0381165f908152600360205260409020546060906103e88110610384575050604080518082019091526008815267706c6174696e756d60c01b6020820152919050565b6101f481106103af57505060408051808201909152600481526319dbdb1960e21b6020820152919050565b606481106103db57505060408051808201909152600681526539b4b63b32b960d11b6020820152919050565b505060408051808201909152600681526562726f6e7a6560d01b6020820152919050565b5f8281526020819052604090206001015461041981610bbb565b6104238383610bc8565b50505050565b6001600160a01b03811633146104525760405163334bd91960e11b815260040160405180910390fd5b61045c8282610c57565b505050565b5f81815260026020526040902080541580610489575060018101546001600160a01b03163314155b806104995750600681015460ff16155b806104ad57506006810154610100900460ff165b156104cb576040516371f1e92160e11b815260040160405180910390fd5b60068101805461ff001916610100179055600581015460405163a9059cbb60e01b815233600482015260248101919091526001600160a01b037f0000000000000000000000000000000000000000000000000000000000000000169063a9059cbb906044016020604051808303815f875af115801561054c573d5f5f3e3d5ffd5b505050506040513d601f19601f820116820180604052508101906105709190610fc6565b50336001600160a01b0316827f4ec90e965519d92681267467f775ada5bd214aa92c0dc93d90a5e880ce9ed02683600501546040516105b191815260200190565b60405180910390a35050565b7f68e79a7bf1e0bc45d0a330c573bc367f9cf464fd326078812f301165fbda4ef16105e781610bbb565b5f838152600260205260408120805490910361061657604051633e55b3b960e21b815260040160405180910390fd5b600681015460ff161561063c57604051630231faf760e31b815260040160405180910390fd5b606483111561065e57604051631a77c6a960e31b815260040160405180910390fd5b60068101805460ff191660011790556008810183905560048082015460649185915f9060ff168281111561069457610694610e2b565b60048111156106a5576106a5610e2b565b81526020019081526020015f20546106bd9190610ff9565b6106c79190611010565b600582015560018101546001600160a01b03165f90815260036020526040812080548592906106f790849061102f565b9091555050600581015460405185917fa2dc1494de1f2b3b6c6ad35fb60e947a264246252bc0245922cfb612e6ccb7cd9161073a91878252602082015260400190565b60405180910390a250505050565b5f918252602082815260408084206001600160a01b0393909316845291905290205460ff1690565b600260208190525f918252604090912080546001820154928201805491936001600160a01b031692916107a290611042565b80601f01602080910402602001604051908101604052809291908181526020018280546107ce90611042565b80156108195780601f106107f057610100808354040283529160200191610819565b820191905f5260205f20905b8154815290600101906020018083116107fc57829003601f168201915b50505050509080600301805461082e90611042565b80601f016020809104026020016040519081016040528092919081815260200182805461085a90611042565b80156108a55780601f1061087c576101008083540402835291602001916108a5565b820191905f5260205f20905b81548152906001019060200180831161088857829003601f168201915b505050506004830154600584015460068501546007860154600890960154949560ff9384169592945083821693610100909204909116918a565b5f8415806108eb575082155b1561090957604051633ba0191160e01b815260040160405180910390fd5b60015f81546109179061107a565b9190508190559050604051806101400160405280828152602001336001600160a01b0316815260200187878080601f0160208091040260200160405190810160405280939291908181526020018383808284375f92019190915250505090825250604080516020601f8801819004810282018101909252868152918101919087908790819084018382808284375f920191909152505050908252506020018360048111156109c7576109c7610e2b565b81525f602080830182905260408084018390526060840183905242608085015260a090930182905284825260028082529183902084518155908401516001820180546001600160a01b0319166001600160a01b039092169190911790559183015190820190610a3690826110f1565b5060608201516003820190610a4b90826110f1565b506080820151816004015f6101000a81548160ff02191690836004811115610a7557610a75610e2b565b021790555060a0820151600582015560c082015160068201805460e085015161ffff1990911692151561ff001916929092176101009215158302179055820151600782015561012090910151600890910155604051339082907f7dcdb2a29ab96186d495186856f0702f07a3893708f2b33b1224a21836b7a54190610afb9086906111ac565b60405180910390a395945050505050565b5f610b1681610bbb565b8160045f856004811115610b2c57610b2c610e2b565b6004811115610b3d57610b3d610e2b565b815260208101919091526040015f2055826004811115610b5f57610b5f610e2b565b6040518381527f86113fe5119e601aa7055791032452dddb7c8f5c0afac65e660b4bd10d55b3a09060200160405180910390a2505050565b5f82815260208190526040902060010154610bb181610bbb565b6104238383610c57565b610bc58133610cc0565b50565b5f610bd38383610748565b610c50575f838152602081815260408083206001600160a01b03861684529091529020805460ff19166001179055610c083390565b6001600160a01b0316826001600160a01b0316847f2f8788117e7eff1d82e926ec794901d17c78024a50270940304540a733656f0d60405160405180910390a4506001610334565b505f610334565b5f610c628383610748565b15610c50575f838152602081815260408083206001600160a01b0386168085529252808320805460ff1916905551339286917ff6391f5c32d9c69d2a47ea670b442974b53935d1edc7fd64eb21e047a839171b9190a4506001610334565b610cca8282610748565b610cfd5760405163e2517d3f60e01b81526001600160a01b03821660048201526024810183905260440160405180910390fd5b5050565b5f60208284031215610d11575f5ffd5b81356001600160e01b031981168114610d28575f5ffd5b9392505050565b5f60208284031215610d3f575f5ffd5b5035919050565b80356001600160a01b0381168114610d5c575f5ffd5b919050565b5f60208284031215610d71575f5ffd5b610d2882610d46565b5f81518084528060208401602086015e5f602082860101526020601f19601f83011685010191505092915050565b602081525f610d286020830184610d7a565b5f5f60408385031215610dcb575f5ffd5b82359150610ddb60208401610d46565b90509250929050565b5f5f60408385031215610df5575f5ffd5b50508035926020909101359150565b803560058110610d5c575f5ffd5b5f60208284031215610e22575f5ffd5b610d2882610e04565b634e487b7160e01b5f52602160045260245ffd5b60058110610e5b57634e487b7160e01b5f52602160045260245ffd5b9052565b8a81526001600160a01b038a166020820152610140604082018190525f90610e899083018b610d7a565b8281036060840152610e9b818b610d7a565b915050610eab6080830189610e3f565b60a082019690965293151560c085015291151560e08401526101008301526101209091015295945050505050565b5f5f83601f840112610ee9575f5ffd5b50813567ffffffffffffffff811115610f00575f5ffd5b602083019150836020828501011115610f17575f5ffd5b9250929050565b5f5f5f5f5f60608688031215610f32575f5ffd5b853567ffffffffffffffff811115610f48575f5ffd5b610f5488828901610ed9565b909650945050602086013567ffffffffffffffff811115610f73575f5ffd5b610f7f88828901610ed9565b9094509250610f92905060408701610e04565b90509295509295909350565b5f5f60408385031215610faf575f5ffd5b610fb883610e04565b946020939093013593505050565b5f60208284031215610fd6575f5ffd5b81518015158114610d28575f5ffd5b634e487b7160e01b5f52601160045260245ffd5b808202811582820484141761033457610334610fe5565b5f8261102a57634e487b7160e01b5f52601260045260245ffd5b500490565b8082018082111561033457610334610fe5565b600181811c9082168061105657607f821691505b60208210810361107457634e487b7160e01b5f52602260045260245ffd5b50919050565b5f6001820161108b5761108b610fe5565b5060010190565b634e487b7160e01b5f52604160045260245ffd5b601f82111561045c57805f5260205f20601f840160051c810160208510156110cb5750805b601f840160051c820191505b818110156110ea575f81556001016110d7565b5050505050565b815167ffffffffffffffff81111561110b5761110b611092565b61111f816111198454611042565b846110a6565b6020601f821160018114611151575f831561113a5750848201515b5f19600385901b1c1916600184901b1784556110ea565b5f84815260208120601f198516915b828110156111805787850151825560209485019460019092019101611160565b508482101561119d57868401515f19600387901b60f8161c191681555b50505050600190811b01905550565b602081016103348284610e3f56fea2646970667358221220e3b5aae1db4a7606282b78753c2464291c407cdcb20b8da45482b6156ff94e0464736f6c634300081c0033",
  "linkReferences": {},
  "deployedLinkReferences": {}
}