{
  "_format": "hh-sol-artifact-1",
  "contractName": "SavingsCircle",
  "sourceName": "src/SavingsCircle.sol",
  "abi": [
    {
      "inputs": [],
      "name": "InvalidCircle",
      "type": "error"
    },
    {
      "inputs": [],
      "name": "ReentrancyGuardReentrantCall",
      "type": "error"
    },
    {
      "anonymous": false,
      "inputs": [
        {
          "indexed": true,
          "internalType": "uint256",
          "name": "id",
          "type": "uint256"
        }
      ],
      "name": "CircleCompleted",
      "type": "event"
    },
    {
      "anonymous": false,
      "inputs": [
        {
          "indexed": true,
          "internalType": "uint256",
          "name": "id",
          "type": "uint256"
        },
        {
          "indexed": false,
          "internalType": "address",
          "name": "member",
          "type": "address"
        },
        {
          "indexed": false,
          "internalType": "uint256",
          "name": "cycle",
          "type": "uint256"
        }
      ],
      "name": "Contributed",
      "type": "event"
    },
    {
      "anonymous": false,
      "inputs": [
        {
          "indexed": true,
          "internalType": "uint256",
          "name": "id",
          "type": "uint256"
        },
        {
          "indexed": false,
          "internalType": "address",
          "name": "creator",
          "type": "address"
        },
        {
          "indexed": false,
          "internalType": "string",
          "name": "name",
          "type": "string"
        }
      ],
      "name": "Created",
      "type": "event"
    },
    {
      "anonymous": false,
      "inputs": [
        {
          "indexed": true,
          "internalType": "uint256",
          "name": "id",
          "type": "uint256"
        },
        {
          "indexed": false,
          "internalType": "address",
          "name": "member",
          "type": "address"
        }
      ],
      "name": "Joined",
      "type": "event"
    },
    {
      "anonymous": false,
      "inputs": [
        {
          "indexed": true,
          "internalType": "uint256",
          "name": "id",
          "type": "uint256"
        },
        {
          "indexed": false,
          "internalType": "address",
          "name": "recipient",
          "type": "address"
        },
        {
          "indexed": false,
          "internalType": "uint256",
          "name": "amount",
          "type": "uint256"
        },
        {
          "indexed": false,
          "internalType": "uint256",
          "name": "cycle",
          "type": "uint256"
        }
      ],
      "name": "Payout",
      "type": "event"
    },
    {
      "anonymous": false,
      "inputs": [
        {
          "indexed": true,
          "internalType": "uint256",
          "name": "id",
          "type": "uint256"
        }
      ],
      "name": "Started",
      "type": "event"
    },
    {
      "inputs": [
        {
          "internalType": "uint256",
          "name": "",
          "type": "uint256"
        }
      ],
      "name": "circles",
      "outputs": [
        {
          "internalType": "uint256",
          "name": "id",
          "type": "uint256"
        },
        {
          "internalType": "address",
          "name": "creator",
          "type": "address"
        },
        {
          "internalType": "string",
          "name": "name",
          "type": "string"
        },
        {
          "internalType": "uint256",
          "name": "contribution",
          "type": "uint256"
        },
        {
          "internalType": "uint256",
          "name": "cycleDuration",
          "type": "uint256"
        },
        {
          "internalType": "uint256",
          "name": "maxMembers",
          "type": "uint256"
        },
        {
          "internalType": "address",
          "name": "token",
          "type": "address"
        },
        {
          "internalType": "enum SavingsCircle.State",
          "name": "state",
          "type": "uint8"
        },
        {
          "internalType": "uint256",
          "name": "cycle",
          "type": "uint256"
        },
        {
          "internalType": "uint256",
          "name": "cycleStart",
          "type": "uint256"
        }
      ],
      "stateMutability": "view",
      "type": "function"
    },
    {
      "inputs": [
        {
          "internalType": "uint256",
          "name": "_id",
          "type": "uint256"
        }
      ],
      "name": "contribute",
      "outputs": [],
      "stateMutability": "nonpayable",
      "type": "function"
    },
    {
      "inputs": [],
      "name": "count",
      "outputs": [
        {
          "internalType": "uint256",
          "name": "",
          "type": "uint256"
        }
      ],
      "stateMutability": "view",
      "type": "function"
    },
    {
      "inputs": [
        {
          "internalType": "string",
          "name": "_name",
          "type": "string"
        },
        {
          "internalType": "uint256",
          "name": "_contrib",
          "type": "uint256"
        },
        {
          "internalType": "uint256",
          "name": "_dur",
          "type": "uint256"
        },
        {
          "internalType": "uint256",
          "name": "_max",
          "type": "uint256"
        },
        {
          "internalType": "address",
          "name": "_token",
          "type": "address"
        }
      ],
      "name": "create",
      "outputs": [
        {
          "internalType": "uint256",
          "name": "",
          "type": "uint256"
        }
      ],
      "stateMutability": "nonpayable",
      "type": "function"
    },
    {
      "inputs": [
        {
          "internalType": "uint256",
          "name": "_id",
          "type": "uint256"
        }
      ],
      "name": "currentRecipient",
      "outputs": [
        {
          "internalType": "address",
          "name": "",
          "type": "address"
        }
      ],
      "stateMutability": "view",
      "type": "function"
    },
    {
      "inputs": [
        {
          "internalType": "uint256",
          "name": "_id",
          "type": "uint256"
        },
        {
          "internalType": "uint256",
          "name": "_cycle",
          "type": "uint256"
        },
        {
          "internalType": "address",
          "name": "_addr",
          "type": "address"
        }
      ],
      "name": "hasPaid",
      "outputs": [
        {
          "internalType": "bool",
          "name": "",
          "type": "bool"
        }
      ],
      "stateMutability": "view",
      "type": "function"
    },
    {
      "inputs": [
        {
          "internalType": "uint256",
          "name": "_id",
          "type": "uint256"
        },
        {
          "internalType": "address",
          "name": "_addr",
          "type": "address"
        }
      ],
      "name": "isMember",
      "outputs": [
        {
          "internalType": "bool",
          "name": "",
          "type": "bool"
        }
      ],
      "stateMutability": "view",
      "type": "function"
    },
    {
      "inputs": [
        {
          "internalType": "uint256",
          "name": "_id",
          "type": "uint256"
        }
      ],
      "name": "join",
      "outputs": [],
      "stateMutability": "nonpayable",
      "type": "function"
    },
    {
      "inputs": [
        {
          "internalType": "uint256",
          "name": "_id",
          "type": "uint256"
        }
      ],
      "name": "memberCount",
      "outputs": [
        {
          "internalType": "uint256",
          "name": "",
          "type": "uint256"
        }
      ],
      "stateMutability": "view",
      "type": "function"
    },
    {
      "inputs": [
        {
          "internalType": "address",
          "name": "",
          "type": "address"
        },
        {
          "internalType": "uint256",
          "name": "",
          "type": "uint256"
        }
      ],
      "name": "memberOf",
      "outputs": [
        {
          "internalType": "uint256",
          "name": "",
          "type": "uint256"
        }
      ],
      "stateMutability": "view",
      "type": "function"
    },
    {
      "inputs": [
        {
          "internalType": "uint256",
          "name": "_id",
          "type": "uint256"
        }
      ],
      "name": "members",
      "outputs": [
        {
          "internalType": "address[]",
          "name": "",
          "type": "address[]"
        }
      ],
      "stateMutability": "view",
      "type": "function"
    },
    {
      "inputs": [
        {
          "internalType": "uint256",
          "name": "_id",
          "type": "uint256"
        }
      ],
      "name": "order",
      "outputs": [
        {
          "internalType": "address[]",
          "name": "",
          "type": "address[]"
        }
      ],
      "stateMutability": "view",
      "type": "function"
    },
    {
      "inputs": [
        {
          "internalType": "uint256",
          "name": "_id",
          "type": "uint256"
        }
      ],
      "name": "start",
      "outputs": [],
      "stateMutability": "nonpayable",
      "type": "function"
    }
  ],
  "bytecode": "0x6080604052348015600e575f5ffd5b5060017f9b779b17422d0df92223018b32b4d1fa46e071723d6817e2486d003becc55f0055611647806100405f395ff3fe608060405234801561000f575f5ffd5b50600436106100cb575f3560e01c80635daf08ca1161008857806395805dad1161006357806395805dad146101a1578063a1a99b02146101b4578063bc5e0f30146101df578063c1cbbca714610208575f5ffd5b80635daf08ca146101685780636e8165e81461017b5780637d9e10f51461018e575f5ffd5b8063049878f3146100cf57806306661abd146100e457806321603f43146100ff5780632f33afb61461011f57806342c6471c146101425780635319d15f14610155575b5f5ffd5b6100e26100dd366004611149565b61021b565b005b6100ec5f5481565b6040519081526020015b60405180910390f35b61011261010d366004611149565b610348565b6040516100f69190611160565b61013261012d3660046111c6565b6103e1565b60405190151581526020016100f6565b6100ec6101503660046111f8565b610444565b6100ec610163366004611220565b61046f565b610112610176366004611149565b6105d9565b6100ec610189366004611149565b610670565b61013261019c3660046112b6565b6106b2565b6100e26101af366004611149565b61070f565b6101c76101c2366004611149565b6108e8565b6040516001600160a01b0390911681526020016100f6565b6101f26101ed366004611149565b610976565b6040516100f69a99989796959493929190611314565b6100e2610216366004611149565b610a65565b5f818152600160205260408120805490910361024a57604051632fb08c4f60e11b815260040160405180910390fd5b5f6006820154600160a01b900460ff16600281111561026b5761026b6112e0565b146102a85760405162461bcd60e51b81526020600482015260086024820152672737ba1037b832b760c11b60448201526064015b60405180910390fd5b335f908152600b8201602052604090205460ff16156102fa5760405162461bcd60e51b815260206004820152600e60248201526d20b63932b0b23c9036b2b6b132b960911b604482015260640161029f565b600581015460098201541061033a5760405162461bcd60e51b815260040161029f90602080825260049082015263119d5b1b60e21b604082015260600190565b6103448233610ccf565b5050565b5f818152600160205260408120546060910361037757604051632fb08c4f60e11b815260040160405180910390fd5b5f82815260016020908152604091829020600a01805483518184028101840190945280845290918301828280156103d557602002820191905f5260205f20905b81546001600160a01b031681526001909101906020018083116103b7575b50505050509050919050565b5f83815260016020526040812054810361040e57604051632fb08c4f60e11b815260040160405180910390fd5b505f928352600160209081526040808520938552600c90930181528284206001600160a01b039290921684525290205460ff1690565b6002602052815f5260405f20818154811061045d575f80fd5b905f5260205f20015f91509150505481565b5f60028310158015610482575060148311155b6104c45760405162461bcd60e51b8152602060048201526013602482015272496e76616c6964206d6178206d656d6265727360681b604482015260640161029f565b620151808410156105095760405162461bcd60e51b815260206004820152600f60248201526e10de58db19481d1bdbc81cda1bdc9d608a1b604482015260640161029f565b5f5f5f8154610517906113be565b91829055505f81815260016020819052604090912082815590810180546001600160a01b0319163317905590915060028101610554898b8361146d565b506003810187905560048101869055600581018590556006810180546001600160a81b0319166001600160a01b0386161790556105918233610ccf565b817fa8aa44d4c04f6a42cbcb3e9422cced663c11b9662445100f1d09c3dd39b2c763338b8b6040516105c593929190611527565b60405180910390a250979650505050505050565b5f818152600160205260408120546060910361060857604051632fb08c4f60e11b815260040160405180910390fd5b5f82815260016020908152604091829020600901805483518184028101840190945280845290918301828280156103d557602002820191905f5260205f209081546001600160a01b031681526001909101906020018083116103b75750505050509050919050565b5f81815260016020526040812054810361069d57604051632fb08c4f60e11b815260040160405180910390fd5b505f9081526001602052604090206009015490565b5f8281526001602052604081205481036106df57604051632fb08c4f60e11b815260040160405180910390fd5b505f8281526001602090815260408083206001600160a01b0385168452600b0190915290205460ff165b92915050565b5f818152600160205260408120805490910361073e57604051632fb08c4f60e11b815260040160405180910390fd5b60018101546001600160a01b031633146107885760405162461bcd60e51b815260206004820152600b60248201526a2737ba1031b932b0ba37b960a91b604482015260640161029f565b5f6006820154600160a01b900460ff1660028111156107a9576107a96112e0565b146107e15760405162461bcd60e51b81526020600482015260086024820152672737ba1037b832b760c11b604482015260640161029f565b60058101546009820154146108235760405162461bcd60e51b8152602060048201526008602482015267139bdd08199d5b1b60c21b604482015260640161029f565b60068101805460ff60a01b1916600160a01b179055426008820155600160078201555f5b60098201548110156108ad5781600a0182600901828154811061086c5761086c611566565b5f918252602080832090910154835460018181018655948452919092200180546001600160a01b0319166001600160a01b0390921691909117905501610847565b506108bb81600a0144610d76565b60405182907e6e0c97de781a7389d44ba8fd35d1467cabb17ed04d038d166d34ab819213f3905f90a25050565b5f8181526001602052604081208054820361091657604051632fb08c4f60e11b815260040160405180910390fd5b600a810154158061092957506007810154155b1561093657505f92915050565b80600a016001826007015461094b919061157a565b8154811061095b5761095b611566565b5f918252602090912001546001600160a01b03169392505050565b600160208190525f91825260409091208054918101546002820180546001600160a01b0390921692916109a8906113ea565b80601f01602080910402602001604051908101604052809291908181526020018280546109d4906113ea565b8015610a1f5780601f106109f657610100808354040283529160200191610a1f565b820191905f5260205f20905b815481529060010190602001808311610a0257829003601f168201915b50505050600383015460048401546005850154600686015460078701546008909701549596939592945090926001600160a01b03821692600160a01b90920460ff16918a565b610a6d610eb0565b5f8181526001602052604081208054909103610a9c57604051632fb08c4f60e11b815260040160405180910390fd5b60016006820154600160a01b900460ff166002811115610abe57610abe6112e0565b14610af85760405162461bcd60e51b815260206004820152600a6024820152694e6f742061637469766560b01b604482015260640161029f565b335f908152600b8201602052604090205460ff16610b455760405162461bcd60e51b815260206004820152600a6024820152692737ba1036b2b6b132b960b11b604482015260640161029f565b60078101545f908152600c82016020908152604080832033845290915290205460ff1615610ba45760405162461bcd60e51b815260206004820152600c60248201526b105b1c9958591e481c185a5960a21b604482015260640161029f565b600681015460038201546040516323b872dd60e01b815233600482015230602482015260448101919091526001600160a01b03909116906323b872dd906064016020604051808303815f875af1158015610c00573d5f5f3e3d5ffd5b505050506040513d601f19601f82011682018060405250810190610c24919061158d565b506007810180545f908152600c8301602090815260408083203380855290835292819020805460ff19166001179055925483519283529082015283917fb2ed2e021651f85a4754a44651fc09ac5141bc0329ce4dfe8dd712a5d04a8b39910160405180910390a2610c9482610ede565b15610ca257610ca282610f6c565b50610ccc60017f9b779b17422d0df92223018b32b4d1fa46e071723d6817e2486d003becc55f0055565b50565b5f8281526001602081815260408084206001600160a01b038616808652600b82018452828620805460ff19168617905560098201805480870182559087528487200180546001600160a01b03191682179055808652600284528286208054958601815586529483902090930186905551928352909184917fc0081eeafa0d002abcd7d58d84b6e688d1526b9c3d915a282212ba08c49a17a7910160405180910390a2505050565b81545f90610d869060019061157a565b90505b8015610eab575f610d9b8260016115b3565b6040805160208101869052908101849052606001604051602081830303815290604052805190602001205f1c610dd191906115c6565b9050838181548110610de557610de5611566565b905f5260205f20015f9054906101000a90046001600160a01b0316848381548110610e1257610e12611566565b905f5260205f20015f9054906101000a90046001600160a01b0316858481548110610e3f57610e3f611566565b905f5260205f20015f878581548110610e5a57610e5a611566565b5f91825260209091200180546001600160a01b039485166001600160a01b031990911617905581549383166101009190910a9081029202199092161790555080610ea3816115e5565b915050610d89565b505050565b610eb8611105565b60027f9b779b17422d0df92223018b32b4d1fa46e071723d6817e2486d003becc55f0055565b5f818152600160205260408120815b6009820154811015610f625781600c015f836007015481526020019081526020015f205f836009018381548110610f2657610f26611566565b5f9182526020808320909101546001600160a01b0316835282019290925260400190205460ff16610f5a57505f9392505050565b600101610eed565b5060019392505050565b5f81815260016020526040812060098101546003820154919291610f9091906115fa565b90505f82600a0160018460070154610fa8919061157a565b81548110610fb857610fb8611566565b5f91825260209091200154600684015460405163a9059cbb60e01b81526001600160a01b039283166004820181905260248201869052935091169063a9059cbb906044016020604051808303815f875af1158015611018573d5f5f3e3d5ffd5b505050506040513d601f19601f8201168201806040525081019061103c919061158d565b506007830154604080516001600160a01b0384168152602081018590529081019190915284907fa5df5a195b51346b41c715be6896ddef8de524059309701b83d22c7e4ec1aa4c9060600160405180910390a260098301546007840154036110e25760068301805460ff60a01b1916600160a11b17905560405184907ffccd3901546cfbb42742cac2c7335bce34f1f8d9844f4f4b53640f79e3101087905f90a26110ff565b600783018054905f6110f3836113be565b90915550504260088401555b50505050565b7f9b779b17422d0df92223018b32b4d1fa46e071723d6817e2486d003becc55f005460020361114757604051633ee5aeb560e01b815260040160405180910390fd5b565b5f60208284031215611159575f5ffd5b5035919050565b602080825282518282018190525f918401906040840190835b818110156111a05783516001600160a01b0316835260209384019390920191600101611179565b509095945050505050565b80356001600160a01b03811681146111c1575f5ffd5b919050565b5f5f5f606084860312156111d8575f5ffd5b83359250602084013591506111ef604085016111ab565b90509250925092565b5f5f60408385031215611209575f5ffd5b611212836111ab565b946020939093013593505050565b5f5f5f5f5f5f60a08789031215611235575f5ffd5b863567ffffffffffffffff81111561124b575f5ffd5b8701601f8101891361125b575f5ffd5b803567ffffffffffffffff811115611271575f5ffd5b896020828401011115611282575f5ffd5b602091820197509550870135935060408701359250606087013591506112aa608088016111ab565b90509295509295509295565b5f5f604083850312156112c7575f5ffd5b823591506112d7602084016111ab565b90509250929050565b634e487b7160e01b5f52602160045260245ffd5b6003811061131057634e487b7160e01b5f52602160045260245ffd5b9052565b8a815260018060a01b038a16602082015261014060408201525f8951806101408401528060208c0161016085015e5f6101608285010152610160601f19601f8301168401019150508860608301528760808301528660a083015261138360c08301876001600160a01b03169052565b61139060e08301866112f4565b610100820193909352610120015298975050505050505050565b634e487b7160e01b5f52601160045260245ffd5b5f600182016113cf576113cf6113aa565b5060010190565b634e487b7160e01b5f52604160045260245ffd5b600181811c908216806113fe57607f821691505b60208210810361141c57634e487b7160e01b5f52602260045260245ffd5b50919050565b601f821115610eab57805f5260205f20601f840160051c810160208510156114475750805b601f840160051c820191505b81811015611466575f8155600101611453565b5050505050565b67ffffffffffffffff831115611485576114856113d6565b6114998361149383546113ea565b83611422565b5f601f8411600181146114ca575f85156114b35750838201355b5f19600387901b1c1916600186901b178355611466565b5f83815260208120601f198716915b828110156114f957868501358255602094850194600190920191016114d9565b5086821015611515575f1960f88860031b161c19848701351681555b505060018560011b0183555050505050565b6001600160a01b03841681526040602082018190528101829052818360608301375f818301606090810191909152601f909201601f1916010192915050565b634e487b7160e01b5f52603260045260245ffd5b81810381811115610709576107096113aa565b5f6020828403121561159d575f5ffd5b815180151581146115ac575f5ffd5b9392505050565b80820180821115610709576107096113aa565b5f826115e057634e487b7160e01b5f52601260045260245ffd5b500690565b5f816115f3576115f36113aa565b505f190190565b8082028115828204841417610709576107096113aa56fea2646970667358221220dfc59df720ad1f1063c718de51927be851c035e3a9bfdb240886a47112ca7d6c64736f6c634300081c0033",
  "linkReferences": {},
  "deployedLinkReferences": {}
}